{
  "contractName": "FTokenShield",
  "abi": [
    {
      "constant": true,
      "inputs": [],
      "name": "burnVkId",
      "outputs": [
        {
          "name": "",
          "type": "bytes32"
        }
      ],
      "payable": false,
      "stateMutability": "view",
      "type": "function"
    },
    {
      "constant": true,
      "inputs": [
        {
          "name": "",
          "type": "bytes27"
        }
      ],
      "name": "ns",
      "outputs": [
        {
          "name": "",
          "type": "bytes27"
        }
      ],
      "payable": false,
      "stateMutability": "view",
      "type": "function"
    },
    {
      "constant": true,
      "inputs": [],
      "name": "mintVkId",
      "outputs": [
        {
          "name": "",
          "type": "bytes32"
        }
      ],
      "payable": false,
      "stateMutability": "view",
      "type": "function"
    },
    {
      "constant": true,
      "inputs": [],
      "name": "verifierRegistry",
      "outputs": [
        {
          "name": "",
          "type": "address"
        }
      ],
      "payable": false,
      "stateMutability": "view",
      "type": "function"
    },
    {
      "constant": true,
      "inputs": [],
      "name": "owner",
      "outputs": [
        {
          "name": "",
          "type": "address"
        }
      ],
      "payable": false,
      "stateMutability": "view",
      "type": "function"
    },
    {
      "constant": true,
      "inputs": [],
      "name": "zCount",
      "outputs": [
        {
          "name": "",
          "type": "uint256"
        }
      ],
      "payable": false,
      "stateMutability": "view",
      "type": "function"
    },
    {
      "constant": true,
      "inputs": [],
      "name": "_owner",
      "outputs": [
        {
          "name": "",
          "type": "address"
        }
      ],
      "payable": false,
      "stateMutability": "view",
      "type": "function"
    },
    {
      "constant": true,
      "inputs": [
        {
          "name": "",
          "type": "bytes27"
        }
      ],
      "name": "zs",
      "outputs": [
        {
          "name": "",
          "type": "bytes27"
        }
      ],
      "payable": false,
      "stateMutability": "view",
      "type": "function"
    },
    {
      "constant": true,
      "inputs": [
        {
          "name": "",
          "type": "uint256"
        }
      ],
      "name": "M",
      "outputs": [
        {
          "name": "",
          "type": "bytes27"
        }
      ],
      "payable": false,
      "stateMutability": "view",
      "type": "function"
    },
    {
      "constant": true,
      "inputs": [],
      "name": "latestRoot",
      "outputs": [
        {
          "name": "",
          "type": "bytes27"
        }
      ],
      "payable": false,
      "stateMutability": "view",
      "type": "function"
    },
    {
      "constant": true,
      "inputs": [
        {
          "name": "",
          "type": "bytes27"
        }
      ],
      "name": "roots",
      "outputs": [
        {
          "name": "",
          "type": "bytes27"
        }
      ],
      "payable": false,
      "stateMutability": "view",
      "type": "function"
    },
    {
      "constant": false,
      "inputs": [
        {
          "name": "newOwner",
          "type": "address"
        }
      ],
      "name": "transferOwnership",
      "outputs": [],
      "payable": false,
      "stateMutability": "nonpayable",
      "type": "function"
    },
    {
      "constant": true,
      "inputs": [],
      "name": "transferVkId",
      "outputs": [
        {
          "name": "",
          "type": "bytes32"
        }
      ],
      "payable": false,
      "stateMutability": "view",
      "type": "function"
    },
    {
      "inputs": [
        {
          "name": "_verifierRegistry",
          "type": "address"
        },
        {
          "name": "_verifier",
          "type": "address"
        },
        {
          "name": "_fToken",
          "type": "address"
        }
      ],
      "payable": false,
      "stateMutability": "nonpayable",
      "type": "constructor"
    },
    {
      "anonymous": false,
      "inputs": [
        {
          "indexed": false,
          "name": "amount",
          "type": "uint256"
        },
        {
          "indexed": false,
          "name": "coin",
          "type": "bytes27"
        },
        {
          "indexed": false,
          "name": "coin_index",
          "type": "uint256"
        }
      ],
      "name": "Mint",
      "type": "event"
    },
    {
      "anonymous": false,
      "inputs": [
        {
          "indexed": false,
          "name": "nullifier1",
          "type": "bytes27"
        },
        {
          "indexed": false,
          "name": "nullifier2",
          "type": "bytes27"
        },
        {
          "indexed": false,
          "name": "coin1",
          "type": "bytes27"
        },
        {
          "indexed": false,
          "name": "coin1_index",
          "type": "uint256"
        },
        {
          "indexed": false,
          "name": "coin2",
          "type": "bytes27"
        },
        {
          "indexed": false,
          "name": "coin2_index",
          "type": "uint256"
        }
      ],
      "name": "Transfer",
      "type": "event"
    },
    {
      "anonymous": false,
      "inputs": [
        {
          "indexed": false,
          "name": "amount",
          "type": "uint256"
        },
        {
          "indexed": false,
          "name": "payTo",
          "type": "address"
        },
        {
          "indexed": false,
          "name": "nullifier",
          "type": "bytes27"
        }
      ],
      "name": "Burn",
      "type": "event"
    },
    {
      "anonymous": false,
      "inputs": [
        {
          "indexed": false,
          "name": "newVerifierContract",
          "type": "address"
        }
      ],
      "name": "VerifierChanged",
      "type": "event"
    },
    {
      "anonymous": false,
      "inputs": [
        {
          "indexed": false,
          "name": "mintVkId",
          "type": "bytes32"
        },
        {
          "indexed": false,
          "name": "transferVkId",
          "type": "bytes32"
        },
        {
          "indexed": false,
          "name": "burnVkId",
          "type": "bytes32"
        }
      ],
      "name": "VkIdsChanged",
      "type": "event"
    },
    {
      "anonymous": false,
      "inputs": [
        {
          "indexed": false,
          "name": "previousOwner",
          "type": "address"
        },
        {
          "indexed": false,
          "name": "newOwner",
          "type": "address"
        }
      ],
      "name": "OwnershipTransferred",
      "type": "event"
    },
    {
      "constant": false,
      "inputs": [
        {
          "name": "_verifier",
          "type": "address"
        }
      ],
      "name": "changeVerifier",
      "outputs": [],
      "payable": false,
      "stateMutability": "nonpayable",
      "type": "function"
    },
    {
      "constant": false,
      "inputs": [],
      "name": "close",
      "outputs": [],
      "payable": false,
      "stateMutability": "nonpayable",
      "type": "function"
    },
    {
      "constant": true,
      "inputs": [],
      "name": "getVerifier",
      "outputs": [
        {
          "name": "",
          "type": "address"
        }
      ],
      "payable": false,
      "stateMutability": "view",
      "type": "function"
    },
    {
      "constant": false,
      "inputs": [
        {
          "name": "_mintVkId",
          "type": "bytes32"
        },
        {
          "name": "_transferVkId",
          "type": "bytes32"
        },
        {
          "name": "_burnVkId",
          "type": "bytes32"
        }
      ],
      "name": "setVkIds",
      "outputs": [],
      "payable": false,
      "stateMutability": "nonpayable",
      "type": "function"
    },
    {
      "constant": true,
      "inputs": [],
      "name": "getFToken",
      "outputs": [
        {
          "name": "",
          "type": "address"
        }
      ],
      "payable": false,
      "stateMutability": "view",
      "type": "function"
    },
    {
      "constant": false,
      "inputs": [
        {
          "name": "_proof",
          "type": "uint256[]"
        },
        {
          "name": "_inputs",
          "type": "uint256[]"
        },
        {
          "name": "_vkId",
          "type": "bytes32"
        }
      ],
      "name": "mint",
      "outputs": [],
      "payable": false,
      "stateMutability": "nonpayable",
      "type": "function"
    },
    {
      "constant": false,
      "inputs": [
        {
          "name": "_proof",
          "type": "uint256[]"
        },
        {
          "name": "_inputs",
          "type": "uint256[]"
        },
        {
          "name": "_vkId",
          "type": "bytes32"
        }
      ],
      "name": "transfer",
      "outputs": [],
      "payable": false,
      "stateMutability": "nonpayable",
      "type": "function"
    },
    {
      "constant": false,
      "inputs": [
        {
          "name": "_proof",
          "type": "uint256[]"
        },
        {
          "name": "_inputs",
          "type": "uint256[]"
        },
        {
          "name": "_vkId",
          "type": "bytes32"
        }
      ],
      "name": "burn",
      "outputs": [],
      "payable": false,
      "stateMutability": "nonpayable",
      "type": "function"
    }
  ],
  "bytecode": "0x608060405260006002553480156200001657600080fd5b5060405160608062002dfb833981018060405260608110156200003857600080fd5b810190808051906020019092919080519060200190929190805190602001909291905050506200006e336200017b60201b60201c565b33600160006101000a81548173ffffffffffffffffffffffffffffffffffffffff021916908373ffffffffffffffffffffffffffffffffffffffff16021790555082600a60006101000a81548173ffffffffffffffffffffffffffffffffffffffff021916908373ffffffffffffffffffffffffffffffffffffffff16021790555081600b60006101000a81548173ffffffffffffffffffffffffffffffffffffffff021916908373ffffffffffffffffffffffffffffffffffffffff16021790555080600c60006101000a81548173ffffffffffffffffffffffffffffffffffffffff021916908373ffffffffffffffffffffffffffffffffffffffff160217905550505050620001be565b806000806101000a81548173ffffffffffffffffffffffffffffffffffffffff021916908373ffffffffffffffffffffffffffffffffffffffff16021790555050565b612c2d80620001ce6000396000f3fe608060405234801561001057600080fd5b50600436106101375760003560e01c80638da5cb5b116100b8578063d6c855291161007c578063d6c8552914610804578063d7b0fef114610856578063eef14e0d14610884578063f2fde38b146108de578063f3d5a26a14610922578063f64964fb1461096c57610137565b80638da5cb5b146106b4578063a3685625146106fe578063b2bdfa7b1461071c578063c70e452714610766578063cf04fb94146107c057610137565b80635dd5de09116100ff5780635dd5de091461045a578063624bca631461049c57806369ae254a146104f65780637200c4ad1461051457806386a23a6b1461066a57610137565b806326ab70211461013c578063374227c91461029257806343d726d6146103e857806346657fe9146103f25780634b76fd6f1461043c575b600080fd5b6102906004803603606081101561015257600080fd5b810190808035906020019064010000000081111561016f57600080fd5b82018360208201111561018157600080fd5b803590602001918460208302840111640100000000831117156101a357600080fd5b919080806020026020016040519081016040528093929190818152602001838360200280828437600081840152601f19601f8201169050808301925050505050505091929192908035906020019064010000000081111561020357600080fd5b82018360208201111561021557600080fd5b8035906020019184602083028401116401000000008311171561023757600080fd5b919080806020026020016040519081016040528093929190818152602001838360200280828437600081840152601f19601f8201169050808301925050505050505091929192908035906020019092919050505061098a565b005b6103e6600480360360608110156102a857600080fd5b81019080803590602001906401000000008111156102c557600080fd5b8201836020820111156102d757600080fd5b803590602001918460208302840111640100000000831117156102f957600080fd5b919080806020026020016040519081016040528093929190818152602001838360200280828437600081840152601f19601f8201169050808301925050505050505091929192908035906020019064010000000081111561035957600080fd5b82018360208201111561036b57600080fd5b8035906020019184602083028401116401000000008311171561038d57600080fd5b919080806020026020016040519081016040528093929190818152602001838360200280828437600081840152601f19601f820116905080830192505050505050509192919290803590602001909291905050506112bf565b005b6103f0611887565b005b6103fa61194d565b604051808273ffffffffffffffffffffffffffffffffffffffff1673ffffffffffffffffffffffffffffffffffffffff16815260200191505060405180910390f35b610444611977565b6040518082815260200191505060405180910390f35b61049a6004803603606081101561047057600080fd5b8101908080359060200190929190803590602001909291908035906020019092919050505061197d565b005b6104d0600480360360208110156104b257600080fd5b81019080803564ffffffffff19169060200190929190505050611dd5565b604051808264ffffffffff191664ffffffffff1916815260200191505060405180910390f35b6104fe611df5565b6040518082815260200191505060405180910390f35b6106686004803603606081101561052a57600080fd5b810190808035906020019064010000000081111561054757600080fd5b82018360208201111561055957600080fd5b8035906020019184602083028401116401000000008311171561057b57600080fd5b919080806020026020016040519081016040528093929190818152602001838360200280828437600081840152601f19601f820116905080830192505050505050509192919290803590602001906401000000008111156105db57600080fd5b8201836020820111156105ed57600080fd5b8035906020019184602083028401116401000000008311171561060f57600080fd5b919080806020026020016040519081016040528093929190818152602001838360200280828437600081840152601f19601f82011690508083019250505050505050919291929080359060200190929190505050611dfb565b005b61067261233f565b604051808273ffffffffffffffffffffffffffffffffffffffff1673ffffffffffffffffffffffffffffffffffffffff16815260200191505060405180910390f35b6106bc612365565b604051808273ffffffffffffffffffffffffffffffffffffffff1673ffffffffffffffffffffffffffffffffffffffff16815260200191505060405180910390f35b61070661238e565b6040518082815260200191505060405180910390f35b610724612394565b604051808273ffffffffffffffffffffffffffffffffffffffff1673ffffffffffffffffffffffffffffffffffffffff16815260200191505060405180910390f35b61079a6004803603602081101561077c57600080fd5b81019080803564ffffffffff191690602001909291905050506123b9565b604051808264ffffffffff191664ffffffffff1916815260200191505060405180910390f35b610802600480360360208110156107d657600080fd5b81019080803573ffffffffffffffffffffffffffffffffffffffff1690602001909291905050506123d9565b005b6108306004803603602081101561081a57600080fd5b810190808035906020019092919050505061250a565b604051808264ffffffffff191664ffffffffff1916815260200191505060405180910390f35b61085e61252a565b604051808264ffffffffff191664ffffffffff1916815260200191505060405180910390f35b6108b86004803603602081101561089a57600080fd5b81019080803564ffffffffff1916906020019092919050505061253d565b604051808264ffffffffff191664ffffffffff1916815260200191505060405180910390f35b610920600480360360208110156108f457600080fd5b81019080803573ffffffffffffffffffffffffffffffffffffffff16906020019092919050505061255d565b005b61092a6126cc565b604051808273ffffffffffffffffffffffffffffffffffffffff1673ffffffffffffffffffffffffffffffffffffffff16815260200191505060405180910390f35b6109746126f6565b6040518082815260200191505060405180910390f35b600e548114610a01576040517f08c379a000000000000000000000000000000000000000000000000000000000815260040180806020018281038252600e8152602001807f496e636f727265637420766b496400000000000000000000000000000000000081525060200191505060405180910390fd5b6000600b60009054906101000a900473ffffffffffffffffffffffffffffffffffffffff1673ffffffffffffffffffffffffffffffffffffffff16634292dc3e8585856040518463ffffffff1660e01b8152600401808060200180602001848152602001838103835286818151815260200191508051906020019060200280838360005b83811015610aa0578082015181840152602081019050610a85565b50505050905001838103825285818151815260200191508051906020019060200280838360005b83811015610ae2578082015181840152602081019050610ac7565b5050505090500195505050505050602060405180830381600087803b158015610b0a57600080fd5b505af1158015610b1e573d6000803e3d6000fd5b505050506040513d6020811015610b3457600080fd5b8101908080519060200190929190505050905080610b9d576040517f08c379a000000000000000000000000000000000000000000000000000000000815260040180806020018281038252602f815260200180612b41602f913960400191505060405180910390fd5b6000610bd184600181518110610baf57fe5b602002602001015185600081518110610bc457fe5b60200260200101516126fc565b90506000610c0785600381518110610be557fe5b602002602001015186600281518110610bfa57fe5b60200260200101516126fc565b90506000610c3d86600581518110610c1b57fe5b602002602001015187600481518110610c3057fe5b60200260200101516126fc565b90506000610c7387600781518110610c5157fe5b602002602001015188600681518110610c6657fe5b60200260200101516126fc565b90506000610ca988600981518110610c8757fe5b602002602001015189600881518110610c9c57fe5b60200260200101516126fc565b90508064ffffffffff1916600660008364ffffffffff191664ffffffffff1916815260200190815260200160002060009054906101000a900460281b64ffffffffff191614610d43576040517f08c379a0000000000000000000000000000000000000000000000000000000008152600401808060200182810382526039815260200180612bc96039913960400191505060405180910390fd5b8364ffffffffff19168564ffffffffff19161415610dac576040517f08c379a000000000000000000000000000000000000000000000000000000000815260040180806020018281038252602b815260200180612b9e602b913960400191505060405180910390fd5b8164ffffffffff19168364ffffffffff19161415610e15576040517f08c379a0000000000000000000000000000000000000000000000000000000008152600401808060200182810382526032815260200180612b0f6032913960400191505060405180910390fd5b600060281b600360008764ffffffffff191664ffffffffff1916815260200190815260200160002060009054906101000a900460281b64ffffffffff191614610ea9576040517f08c379a0000000000000000000000000000000000000000000000000000000008152600401808060200182810382526025815260200180612aea6025913960400191505060405180910390fd5b600060281b600360008664ffffffffff191664ffffffffff1916815260200190815260200160002060009054906101000a900460281b64ffffffffff191614610f3d576040517f08c379a0000000000000000000000000000000000000000000000000000000008152600401808060200182810382526025815260200180612aea6025913960400191505060405180910390fd5b84600360008764ffffffffff191664ffffffffff1916815260200190815260200160002060006101000a8154817affffffffffffffffffffffffffffffffffffffffffffffffffffff021916908360281c021790555083600360008664ffffffffff191664ffffffffff1916815260200190815260200160002060006101000a8154817affffffffffffffffffffffffffffffffffffffffffffffffffffff021916908360281c021790555082600460008564ffffffffff191664ffffffffff1916815260200190815260200160002060006101000a8154817affffffffffffffffffffffffffffffffffffffffffffffffffffff021916908360281c02179055506007600081548092919060010191905055600164010000000003016008819055508260056000600854815260200190815260200160002060006101000a8154817affffffffffffffffffffffffffffffffffffffffffffffffffffff021916908360281c02179055506110b360085461271b565b5081600460008464ffffffffff191664ffffffffff1916815260200190815260200160002060006101000a8154817affffffffffffffffffffffffffffffffffffffffffffffffffffff021916908360281c0217905550600754600164010000000003016008819055508160056000600854815260200190815260200160002060006101000a8154817affffffffffffffffffffffffffffffffffffffffffffffffffffff021916908360281c0217905550600061117260085461271b565b905080600660008364ffffffffff191664ffffffffff1916815260200190815260200160002060006101000a8154817affffffffffffffffffffffffffffffffffffffffffffffffffffff021916908360281c021790555080600960006101000a8154817affffffffffffffffffffffffffffffffffffffffffffffffffffff021916908360281c02179055507f471d3a5b097fd9fe35019d52ef11b09b69acd836fe7323f6907da7b2dedac9ee868686600160075403876007600081548092919060010191905055604051808764ffffffffff191664ffffffffff191681526020018664ffffffffff191664ffffffffff191681526020018564ffffffffff191664ffffffffff191681526020018481526020018364ffffffffff191664ffffffffff19168152602001828152602001965050505050505060405180910390a150505050505050505050565b600f548114611336576040517f08c379a000000000000000000000000000000000000000000000000000000000815260040180806020018281038252600e8152602001807f496e636f727265637420766b496400000000000000000000000000000000000081525060200191505060405180910390fd5b6000600b60009054906101000a900473ffffffffffffffffffffffffffffffffffffffff1673ffffffffffffffffffffffffffffffffffffffff16634292dc3e8585856040518463ffffffff1660e01b8152600401808060200180602001848152602001838103835286818151815260200191508051906020019060200280838360005b838110156113d55780820151818401526020810190506113ba565b50505050905001838103825285818151815260200191508051906020019060200280838360005b838110156114175780820151818401526020810190506113fc565b5050505090500195505050505050602060405180830381600087803b15801561143f57600080fd5b505af1158015611453573d6000803e3d6000fd5b505050506040513d602081101561146957600080fd5b81019080805190602001909291905050509050806114d2576040517f08c379a000000000000000000000000000000000000000000000000000000000815260040180806020018281038252602f815260200180612b41602f913960400191505060405180910390fd5b6000611506846001815181106114e457fe5b6020026020010151856000815181106114f957fe5b6020026020010151612a8c565b9050600081905060008560028151811061151c57fe5b60200260200101519050600061155a8760048151811061153857fe5b60200260200101518860038151811061154d57fe5b60200260200101516126fc565b905060006115908860068151811061156e57fe5b60200260200101518960058151811061158357fe5b60200260200101516126fc565b90508064ffffffffff1916600660008364ffffffffff191664ffffffffff1916815260200190815260200160002060009054906101000a900460281b64ffffffffff19161461162a576040517f08c379a0000000000000000000000000000000000000000000000000000000008152600401808060200182810382526039815260200180612bc96039913960400191505060405180910390fd5b600060281b600360008464ffffffffff191664ffffffffff1916815260200190815260200160002060009054906101000a900460281b64ffffffffff1916146116be576040517f08c379a0000000000000000000000000000000000000000000000000000000008152600401808060200182810382526025815260200180612aea6025913960400191505060405180910390fd5b81600360008464ffffffffff191664ffffffffff1916815260200190815260200160002060006101000a8154817affffffffffffffffffffffffffffffffffffffffffffffffffffff021916908360281c0217905550600c60009054906101000a900473ffffffffffffffffffffffffffffffffffffffff1673ffffffffffffffffffffffffffffffffffffffff1663a9059cbb85856040518363ffffffff1660e01b8152600401808373ffffffffffffffffffffffffffffffffffffffff1673ffffffffffffffffffffffffffffffffffffffff16815260200182815260200192505050602060405180830381600087803b1580156117bd57600080fd5b505af11580156117d1573d6000803e3d6000fd5b505050506040513d60208110156117e757600080fd5b8101908080519060200190929190505050507fd50a36185136b1e3a60c7cbd5337bd68879da4f4248aa14fa7ff352cc6d2c4e0838584604051808481526020018373ffffffffffffffffffffffffffffffffffffffff1673ffffffffffffffffffffffffffffffffffffffff1681526020018264ffffffffff191664ffffffffff19168152602001935050505060405180910390a1505050505050505050565b61188f612365565b73ffffffffffffffffffffffffffffffffffffffff163373ffffffffffffffffffffffffffffffffffffffff1614611912576040517f08c379a000000000000000000000000000000000000000000000000000000000815260040180806020018281038252602e815260200180612b70602e913960400191505060405180910390fd5b600160009054906101000a900473ffffffffffffffffffffffffffffffffffffffff1673ffffffffffffffffffffffffffffffffffffffff16ff5b6000600b60009054906101000a900473ffffffffffffffffffffffffffffffffffffffff16905090565b600f5481565b611985612365565b73ffffffffffffffffffffffffffffffffffffffff163373ffffffffffffffffffffffffffffffffffffffff1614611a08576040517f08c379a000000000000000000000000000000000000000000000000000000000815260040180806020018281038252602e815260200180612b70602e913960400191505060405180910390fd5b600a60009054906101000a900473ffffffffffffffffffffffffffffffffffffffff1673ffffffffffffffffffffffffffffffffffffffff1663d00412dc846040518263ffffffff1660e01b81526004018082815260200191505060206040518083038186803b158015611a7b57600080fd5b505afa158015611a8f573d6000803e3d6000fd5b505050506040513d6020811015611aa557600080fd5b81019080805190602001909291905050508314611b2a576040517f08c379a00000000000000000000000000000000000000000000000000000000081526004018080602001828103825260198152602001807f4d696e7420766b4964206e6f7420726567697374657265642e0000000000000081525060200191505060405180910390fd5b600a60009054906101000a900473ffffffffffffffffffffffffffffffffffffffff1673ffffffffffffffffffffffffffffffffffffffff1663d00412dc836040518263ffffffff1660e01b81526004018082815260200191505060206040518083038186803b158015611b9d57600080fd5b505afa158015611bb1573d6000803e3d6000fd5b505050506040513d6020811015611bc757600080fd5b81019080805190602001909291905050508214611c4c576040517f08c379a000000000000000000000000000000000000000000000000000000000815260040180806020018281038252601d8152602001807f5472616e7366657220766b4964206e6f7420726567697374657265642e00000081525060200191505060405180910390fd5b600a60009054906101000a900473ffffffffffffffffffffffffffffffffffffffff1673ffffffffffffffffffffffffffffffffffffffff1663d00412dc826040518263ffffffff1660e01b81526004018082815260200191505060206040518083038186803b158015611cbf57600080fd5b505afa158015611cd3573d6000803e3d6000fd5b505050506040513d6020811015611ce957600080fd5b81019080805190602001909291905050508114611d6e576040517f08c379a00000000000000000000000000000000000000000000000000000000081526004018080602001828103825260198152602001807f4275726e20766b4964206e6f7420726567697374657265642e0000000000000081525060200191505060405180910390fd5b82600d8190555081600e8190555080600f819055507f1f8f16ca5111548c9fdc797c50a49b5f07f4fa15595b6c53f497d029554197e5600d54600e54600f5460405180848152602001838152602001828152602001935050505060405180910390a1505050565b60036020528060005260406000206000915054906101000a900460281b81565b600d5481565b600d548114611e72576040517f08c379a000000000000000000000000000000000000000000000000000000000815260040180806020018281038252600e8152602001807f496e636f727265637420766b496400000000000000000000000000000000000081525060200191505060405180910390fd5b6000600b60009054906101000a900473ffffffffffffffffffffffffffffffffffffffff1673ffffffffffffffffffffffffffffffffffffffff16634292dc3e8585856040518463ffffffff1660e01b8152600401808060200180602001848152602001838103835286818151815260200191508051906020019060200280838360005b83811015611f11578082015181840152602081019050611ef6565b50505050905001838103825285818151815260200191508051906020019060200280838360005b83811015611f53578082015181840152602081019050611f38565b5050505090500195505050505050602060405180830381600087803b158015611f7b57600080fd5b505af1158015611f8f573d6000803e3d6000fd5b505050506040513d6020811015611fa557600080fd5b810190808051906020019092919050505090508061200e576040517f08c379a000000000000000000000000000000000000000000000000000000000815260040180806020018281038252602f815260200180612b41602f913960400191505060405180910390fd5b60006120428460028151811061202057fe5b60200260200101518560018151811061203557fe5b60200260200101516126fc565b905080600460008364ffffffffff191664ffffffffff1916815260200190815260200160002060006101000a8154817affffffffffffffffffffffffffffffffffffffffffffffffffffff021916908360281c0217905550600754600164010000000003016008819055508060056000600854815260200190815260200160002060006101000a8154817affffffffffffffffffffffffffffffffffffffffffffffffffffff021916908360281c0217905550600061210260085461271b565b905080600660008364ffffffffff191664ffffffffff1916815260200190815260200160002060006101000a8154817affffffffffffffffffffffffffffffffffffffffffffffffffffff021916908360281c021790555080600960006101000a8154817affffffffffffffffffffffffffffffffffffffffffffffffffffff021916908360281c0217905550600c60009054906101000a900473ffffffffffffffffffffffffffffffffffffffff1673ffffffffffffffffffffffffffffffffffffffff166323b872dd3330886000815181106121dc57fe5b60200260200101516040518463ffffffff1660e01b8152600401808473ffffffffffffffffffffffffffffffffffffffff1673ffffffffffffffffffffffffffffffffffffffff1681526020018373ffffffffffffffffffffffffffffffffffffffff1673ffffffffffffffffffffffffffffffffffffffff1681526020018281526020019350505050602060405180830381600087803b15801561228057600080fd5b505af1158015612294573d6000803e3d6000fd5b505050506040513d60208110156122aa57600080fd5b8101908080519060200190929190505050507fc81094acd9f12dd63a81a66a4237787a7d981db2f8f94bb2fa7a0f835f5c80b3856000815181106122ea57fe5b6020026020010151836007600081548092919060010191905055604051808481526020018364ffffffffff191664ffffffffff19168152602001828152602001935050505060405180910390a1505050505050565b600a60009054906101000a900473ffffffffffffffffffffffffffffffffffffffff1681565b60008060009054906101000a900473ffffffffffffffffffffffffffffffffffffffff16905090565b60075481565b6000809054906101000a900473ffffffffffffffffffffffffffffffffffffffff1681565b60046020528060005260406000206000915054906101000a900460281b81565b6123e1612365565b73ffffffffffffffffffffffffffffffffffffffff163373ffffffffffffffffffffffffffffffffffffffff1614612464576040517f08c379a000000000000000000000000000000000000000000000000000000000815260040180806020018281038252602e815260200180612b70602e913960400191505060405180910390fd5b80600b60006101000a81548173ffffffffffffffffffffffffffffffffffffffff021916908373ffffffffffffffffffffffffffffffffffffffff1602179055507eaccbf0787bf565863b49aef6d6d8ff2f631f1da95c76e016aed7a21a11a7b781604051808273ffffffffffffffffffffffffffffffffffffffff1673ffffffffffffffffffffffffffffffffffffffff16815260200191505060405180910390a150565b60056020528060005260406000206000915054906101000a900460281b81565b600960009054906101000a900460281b81565b60066020528060005260406000206000915054906101000a900460281b81565b612565612365565b73ffffffffffffffffffffffffffffffffffffffff163373ffffffffffffffffffffffffffffffffffffffff16146125e8576040517f08c379a000000000000000000000000000000000000000000000000000000000815260040180806020018281038252602e815260200180612b70602e913960400191505060405180910390fd5b600073ffffffffffffffffffffffffffffffffffffffff168173ffffffffffffffffffffffffffffffffffffffff16141561262257600080fd5b7f8be0079c531659141344cd1fd0a4f28419497f9722a3daafe3b4186f6b6457e061264b612365565b82604051808373ffffffffffffffffffffffffffffffffffffffff1673ffffffffffffffffffffffffffffffffffffffff1681526020018273ffffffffffffffffffffffffffffffffffffffff1673ffffffffffffffffffffffffffffffffffffffff1681526020019250505060405180910390a16126c981612aa6565b50565b6000600c60009054906101000a900473ffffffffffffffffffffffffffffffffffffffff16905090565b600e5481565b600060808260281b64ffffffffff1916901b8360281b17905092915050565b600080600080600160210390505b6000811115612a615760006002868161273e57fe5b0614156128ce576001850392506002600186038161275857fe5b049150602860026005600086815260200190815260200160002060009054906101000a900460281b6005600089815260200190815260200160002060009054906101000a900460281b604051602001808364ffffffffff191664ffffffffff19168152601b018264ffffffffff191664ffffffffff19168152601b01925050506040516020818303038152906040526040518082805190602001908083835b6020831061281a57805182526020820191506020810190506020830392506127f7565b6001836020036101000a038019825116818451168082178552505050505050905001915050602060405180830381855afa15801561285c573d6000803e3d6000fd5b5050506040513d602081101561287157600080fd5b8101908080519060200190929190505050901b6005600084815260200190815260200160002060006101000a8154817affffffffffffffffffffffffffffffffffffffffffffffffffffff021916908360281c0217905550612a50565b600185019250600285816128de57fe5b049150602860026005600088815260200190815260200160002060009054906101000a900460281b6005600087815260200190815260200160002060009054906101000a900460281b604051602001808364ffffffffff191664ffffffffff19168152601b018264ffffffffff191664ffffffffff19168152601b01925050506040516020818303038152906040526040518082805190602001908083835b602083106129a0578051825260208201915060208101905060208303925061297d565b6001836020036101000a038019825116818451168082178552505050505050905001915050602060405180830381855afa1580156129e2573d6000803e3d6000fd5b5050506040513d60208110156129f757600080fd5b8101908080519060200190929190505050901b6005600084815260200190815260200160002060006101000a8154817affffffffffffffffffffffffffffffffffffffffffffffffffffff021916908360281c02179055505b819450808060019003915050612729565b506005600080815260200190815260200160002060009054906101000a900460281b92505050919050565b60008260001b60808360001b901b1760001c905092915050565b806000806101000a81548173ffffffffffffffffffffffffffffffffffffffff021916908373ffffffffffffffffffffffffffffffffffffffff1602179055505056fe54686520746f6b656e2068617320616c7265616479206265656e206e756c6c69666965642154686520746f6b656e20636f6d6d69746d656e7473207a6520616e64207a66206d75737420626520646966666572656e74215468652070726f6f6620686173206e6f74206265656e2076657269666965642062792074686520636f6e7472616374596f7520617265206e6f7420617574686f726973656420746f20696e766f6b6520746869732066756e6374696f6e546865206e756c6c696669657273206e6320616e64206e64206d75737420626520646966666572656e742154686520696e70757420726f6f7420686173206e65766572206265656e2074686520726f6f74206f6620746865204d65726b6c652054726565a165627a7a72305820ebe60d3adcb08d3b6746524d25aa88bb27aba7283c218cd24af10208b059cd010029",
  "source": "/**\nContract to enable the management of ZKSnark-hidden coin transactions.\n@Author Westlad, Chaitanya-Konda, iAmMichaelConnor\n*/\n\npragma solidity ^0.5.8;\nimport \"./Ownable.sol\";\nimport \"./Verifier_Registry.sol\"; //we import the implementation to have visibility of its 'getters'\nimport \"./Verifier_Interface.sol\";\nimport \"./ERC20Interface.sol\";\n\ncontract FTokenShield is Ownable {\n\n  /*\n  @notice Explanation of the Merkle Tree, M, in this contract:\n  We store the merkle tree nodes in a flat array.\n\n\n\n                                      0  <-- this is our Merkle Root\n                               /             \\\n                        1                             2\n                    /       \\                     /       \\\n                3             4               5               6\n              /   \\         /   \\           /   \\           /    \\\n            7       8      9      10      11      12      13      14\n          /  \\    /  \\   /  \\    /  \\    /  \\    /  \\    /  \\    /  \\\n         15  16  17 18  19  20  21  22  23  24  25  26  27  28  29  30\n\ndepth row  width  st#     end#\n  1    0   2^0=1  w=0   2^1-1=0\n  2    1   2^1=2  w=1   2^2-1=2\n  3    2   2^2=4  w=3   2^3-1=6\n  4    3   2^3=8  w=7   2^4-1=14\n  5    4   2^4=16 w=15  2^5-1=30\n\n  d = depth = 5\n  r = row number\n  w = width = 2^(depth-1) = 2^3 = 16\n  #nodes = (2^depth)-1 = 2^5-2 = 30\n\n  */\n\n  event Mint(uint256 amount, bytes27 coin, uint256 coin_index);\n  event Transfer(bytes27 nullifier1, bytes27 nullifier2, bytes27 coin1, uint256 coin1_index, bytes27 coin2, uint256 coin2_index);\n  event Burn(uint256 amount, address payTo, bytes27 nullifier);\n\n  event VerifierChanged(address newVerifierContract);\n  event VkIdsChanged(bytes32 mintVkId, bytes32 transferVkId, bytes32 burnVkId);\n\n  address payable private _owner;\n\n  uint constant merkleWidth = 4294967296; //2^32\n  uint constant merkleDepth = 33; //33\n\n  uint private balance = 0;\n\n  mapping(bytes27 => bytes27) public ns; //store nullifiers of spent commitments\n  mapping(bytes27 => bytes27) public zs; //array holding the commitments.  Basically the bottom row of the merkle tree\n  mapping(uint256 => bytes27) public M; //the entire Merkle Tree of nodes, with 0 being the root, and the latter 'half' of M being the leaves.\n  mapping(bytes27 => bytes27) public roots; //holds each root we've calculated so that we can pull the one relevant to the prover\n\n  uint256 public zCount; //remembers the number of commitments we hold\n  uint256 private leafIndex; //index for posting/getting leaves to/from M\n  bytes27 public latestRoot; //holds the index for the latest root so that the prover can provide it later and this contract can look up the relevant root\n\n  Verifier_Registry public verifierRegistry; //the Verifier Registry contract\n  Verifier_Interface private verifier; //the verification smart contract\n  ERC20Interface private fToken; //the  ERC-20 token contract\n\n  //following registration of the vkId's with the Verifier Registry, we hard code their vkId's in setVkIds\n  bytes32 public mintVkId;\n  bytes32 public transferVkId;\n  bytes32 public burnVkId;\n\n  constructor(address _verifierRegistry, address _verifier, address _fToken) public {\n      _owner = msg.sender;\n      verifierRegistry = Verifier_Registry(_verifierRegistry);\n      verifier = Verifier_Interface(_verifier);\n      fToken = ERC20Interface(_fToken);\n  }\n\n  /**\n  function to change the address of the underlying Verifier contract\n  */\n  function changeVerifier(address _verifier) external onlyOwner {\n      verifier = Verifier_Interface(_verifier);\n      emit VerifierChanged(_verifier);\n  }\n\n  /**\n  self destruct\n  */\n  function close() public onlyOwner {\n      selfdestruct(_owner);\n  }\n\n  /**\n  returns the verifier-interface contract address that this shield contract is calling\n  */\n  function getVerifier() public view returns(address){\n      return address(verifier);\n  }\n\n  /**\n  Sets the vkIds (as registered with the Verifier Registry) which correspond to 'mint', 'transfer' and 'burn' computations respectively\n  */\n  function setVkIds(bytes32 _mintVkId, bytes32 _transferVkId, bytes32 _burnVkId) external onlyOwner {\n      //ensure the vkId's have been registered:\n      require(_mintVkId == verifierRegistry.getVkEntryVkId(_mintVkId), \"Mint vkId not registered.\");\n      require(_transferVkId == verifierRegistry.getVkEntryVkId(_transferVkId), \"Transfer vkId not registered.\");\n      require(_burnVkId == verifierRegistry.getVkEntryVkId(_burnVkId), \"Burn vkId not registered.\");\n\n      //store the vkIds\n      mintVkId = _mintVkId;\n      transferVkId = _transferVkId;\n      burnVkId = _burnVkId;\n\n      emit VkIdsChanged(mintVkId, transferVkId, burnVkId);\n  }\n\n  /**\n  returns the ERC-20 contract address that this shield contract is calling\n  */\n  function getFToken() public view returns(address){\n    return address(fToken);\n  }\n\n\n  /**\n  The mint function accepts fungible tokens from the specified fToken ERC-20 contract and creates the same amount as a commitment.\n  */\n  function mint(uint256[] memory _proof, uint256[] memory _inputs, bytes32 _vkId) public {\n\n    require(_vkId == mintVkId, \"Incorrect vkId\");\n\n    // verify the proof\n    bool result = verifier.verify(_proof, _inputs, _vkId);\n    require(result, \"The proof has not been verified by the contract\");\n\n    bytes27 z = packedToBytes27(_inputs[2], _inputs[1]);//recover the input params from MintVerifier\n\n    zs[z] = z; //add the token\n\n    leafIndex = merkleWidth - 1 + zCount;//specify the index of z within M\n    M[leafIndex] = z;//add z to M\n\n    bytes27 root = updatePathToRoot(leafIndex);//recalculate the root of M as it's now different\n    roots[root] = root; //and save the new root to the list of roots\n    latestRoot = root;\n\n    //Finally, transfer the fTokens from the sender to this contract\n    fToken.transferFrom(msg.sender, address(this), _inputs[0]);\n\n    emit Mint(_inputs[0], z, zCount++);\n  }\n\n  /**\n  The transfer function transfers a commitment to a new owner\n  */\n  function transfer(uint256[] memory _proof, uint256[] memory _inputs, bytes32 _vkId) public {\n\n    require(_vkId == transferVkId, \"Incorrect vkId\");\n\n    // verify the proof\n    bool result = verifier.verify(_proof, _inputs, _vkId);\n    require(result, \"The proof has not been verified by the contract\");\n\n    bytes27 nc = packedToBytes27(_inputs[1], _inputs[0]);\n    bytes27 nd = packedToBytes27(_inputs[3], _inputs[2]);\n    bytes27 ze = packedToBytes27(_inputs[5], _inputs[4]);\n    bytes27 zf = packedToBytes27(_inputs[7], _inputs[6]);\n    bytes27 inputRoot = packedToBytes27(_inputs[9],_inputs[8]);\n\n\n    require(roots[inputRoot] == inputRoot, \"The input root has never been the root of the Merkle Tree\");\n    require(nc != nd, \"The nullifiers nc and nd must be different!\");\n    require(ze != zf, \"The token commitments ze and zf must be different!\");\n    require(ns[nc] == 0, \"The token has already been nullified!\");\n    require(ns[nd] == 0, \"The token has already been nullified!\");\n\n    ns[nc] = nc; //remember we spent it\n    ns[nd] = nd; //remember we spent it\n    zs[ze] = ze; //add Bob's commitment to the list of commitments\n\n    leafIndex = merkleWidth - 1 + zCount++; //specify the index of z within M\n    M[leafIndex] = ze; //add z to M\n\n    updatePathToRoot(leafIndex);\n\n    zs[zf] = zf; //add Alice's commitment to the list of commitment\n\n    leafIndex = merkleWidth - 1 + zCount; //specify the index of z within M\n    M[leafIndex] = zf; //add z to M\n\n    bytes27 root = updatePathToRoot(leafIndex);//recalculate the root of M as it's now different\n    roots[root] = root; //and save the new root to the list of roots\n    latestRoot = root;\n\n    emit Transfer(nc, nd, ze, zCount - 1, zf, zCount++);\n  }\n\n\n  function burn(uint256[] memory _proof, uint256[] memory _inputs, bytes32 _vkId) public {\n\n    require(_vkId == burnVkId, \"Incorrect vkId\");\n\n    // verify the proof\n    bool result = verifier.verify(_proof, _inputs, _vkId);\n    require(result, \"The proof has not been verified by the contract\");\n\n    uint256 payToUint = combineUint256(_inputs[1], _inputs[0]); //recover the payTo address\n    address payTo = address(payToUint); // explicitly convert to address (because we're sure no data loss will result from this)\n    uint256 value = _inputs[2]; //the coin value being cashed-out\n    bytes27 nc = packedToBytes27(_inputs[4], _inputs[3]); //recover the nullifier\n    bytes27 inputRoot = packedToBytes27(_inputs[6], _inputs[5]); //recover the root\n\n    require(roots[inputRoot] == inputRoot, \"The input root has never been the root of the Merkle Tree\");\n    require(ns[nc]==0, \"The token has already been nullified!\");\n\n    ns[nc] = nc; //add the nullifier to the list of nullifiers\n\n    //Finally, transfer the fungible tokens from this contract to the nominated address\n    fToken.transfer(payTo, value);\n\n    emit Burn(value, payTo, nc);\n\n  }\n\n\n  /**\n  Updates each node of the Merkle Tree on the path from leaf to root.\n  p - is the leafIndex of the new token within M.\n  */\n  function updatePathToRoot(uint p) private returns (bytes27) {\n\n  /*\n  If Z were the token, then the p's mark the 'path', and the s's mark the 'sibling path'\n\n                   p\n          p                  s\n     s         p        EF        GH\n  A    B    Z    s    E    F    G    H\n  */\n\n      uint s; //s is the 'sister' path of p.\n      uint t; //temp index for the next p (i.e. the path node of the row above)\n      for (uint r = merkleDepth-1; r > 0; r--) {\n          if (p%2 == 0) { //p even index in M\n              s = p-1;\n              t = (p-1)/2;\n              M[t] = bytes27(sha256(abi.encodePacked(M[s],M[p]))<<40);\n          } else { //p odd index in M\n              s = p+1;\n              t = p/2;\n              M[t] = bytes27(sha256(abi.encodePacked(M[p],M[s]))<<40);\n          }\n          p = t; //move to the path node on the next highest row of the tree\n      }\n      return M[0]; //the root of M\n  }\n\n  function packedToBytes27(uint256 low, uint256 high) private pure returns (bytes27){\n    return bytes27(uint216(low)) | (bytes27(uint216(high))<<128);\n  }\n\n  function combineUint256(uint256 low, uint256 high) private pure returns (uint256){\n    return uint256((bytes32(high)<<128) | bytes32(low));\n  }\n\n}\n",
  "sourcePath": "/Users/hz/workspace/nightfall/contracts/FTokenShield.sol",
  "compiler": {
    "name": "solc",
    "version": "0.5.8+commit.23d335f2.Emscripten.clang"
  },
  "schemaVersion": "3.0.11",
  "updatedAt": "2019-09-16T13:04:36.728Z",
  "devdoc": {
    "methods": {
      "owner()": {
        "details": "Tells the address of the owner",
        "return": "the address of the owner"
      },
      "transferOwnership(address)": {
        "details": "Allows the current owner to transfer control of the contract to a newOwner.",
        "params": {
          "newOwner": "The address to transfer ownership to."
        }
      }
    }
  },
  "userdoc": {
    "methods": {
      "changeVerifier(address)": {
        "notice": "function to change the address of the underlying Verifier contract"
      },
      "close()": {
        "notice": "self destruct"
      },
      "getFToken()": {
        "notice": "returns the ERC-20 contract address that this shield contract is calling"
      },
      "getVerifier()": {
        "notice": "returns the verifier-interface contract address that this shield contract is calling"
      },
      "mint(uint256[],uint256[],bytes32)": {
        "notice": "The mint function accepts fungible tokens from the specified fToken ERC-20 contract and creates the same amount as a commitment."
      },
      "setVkIds(bytes32,bytes32,bytes32)": {
        "notice": "Sets the vkIds (as registered with the Verifier Registry) which correspond to 'mint', 'transfer' and 'burn' computations respectively"
      },
      "transfer(uint256[],uint256[],bytes32)": {
        "notice": "The transfer function transfers a commitment to a new owner"
      }
    }
  }
}