{
  "contractName": "GM17_v0",
  "abi": [
    {
      "constant": true,
      "inputs": [],
      "name": "R",
      "outputs": [
        {
          "name": "",
          "type": "address"
        }
      ],
      "payable": false,
      "stateMutability": "view",
      "type": "function"
    },
    {
      "constant": true,
      "inputs": [],
      "name": "owner",
      "outputs": [
        {
          "name": "",
          "type": "address"
        }
      ],
      "payable": false,
      "stateMutability": "view",
      "type": "function"
    },
    {
      "constant": true,
      "inputs": [],
      "name": "_owner",
      "outputs": [
        {
          "name": "",
          "type": "address"
        }
      ],
      "payable": false,
      "stateMutability": "view",
      "type": "function"
    },
    {
      "constant": false,
      "inputs": [
        {
          "name": "newOwner",
          "type": "address"
        }
      ],
      "name": "transferOwnership",
      "outputs": [],
      "payable": false,
      "stateMutability": "nonpayable",
      "type": "function"
    },
    {
      "inputs": [
        {
          "name": "_registry",
          "type": "address"
        }
      ],
      "payable": false,
      "stateMutability": "nonpayable",
      "type": "constructor"
    },
    {
      "anonymous": false,
      "inputs": [
        {
          "indexed": false,
          "name": "previousOwner",
          "type": "address"
        },
        {
          "indexed": false,
          "name": "newOwner",
          "type": "address"
        }
      ],
      "name": "OwnershipTransferred",
      "type": "event"
    },
    {
      "constant": false,
      "inputs": [
        {
          "name": "_proof",
          "type": "uint256[]"
        },
        {
          "name": "_inputs",
          "type": "uint256[]"
        },
        {
          "name": "_vkId",
          "type": "bytes32"
        }
      ],
      "name": "verify",
      "outputs": [
        {
          "name": "result",
          "type": "bool"
        }
      ],
      "payable": false,
      "stateMutability": "nonpayable",
      "type": "function"
    },
    {
      "constant": false,
      "inputs": [
        {
          "name": "_proof",
          "type": "uint256[]"
        },
        {
          "name": "_inputs",
          "type": "uint256[]"
        },
        {
          "name": "_vkId",
          "type": "bytes32"
        }
      ],
      "name": "verifyFromRegistry",
      "outputs": [
        {
          "name": "result",
          "type": "bool"
        }
      ],
      "payable": false,
      "stateMutability": "nonpayable",
      "type": "function"
    },
    {
      "constant": false,
      "inputs": [
        {
          "name": "_proof",
          "type": "uint256[]"
        },
        {
          "name": "_inputs",
          "type": "uint256[]"
        },
        {
          "name": "_vkId",
          "type": "bytes32"
        }
      ],
      "name": "verificationCalculation",
      "outputs": [
        {
          "name": "",
          "type": "uint256"
        }
      ],
      "payable": false,
      "stateMutability": "nonpayable",
      "type": "function"
    },
    {
      "constant": true,
      "inputs": [],
      "name": "getRegistry",
      "outputs": [
        {
          "name": "",
          "type": "address"
        }
      ],
      "payable": false,
      "stateMutability": "view",
      "type": "function"
    }
  ],
  "bytecode": "0x60806040523480156200001157600080fd5b5060405160208062002722833981018060405260208110156200003357600080fd5b810190808051906020019092919050505062000055336200006d60201b60201c565b6200006681620000b060201b60201c565b50620002e8565b806000806101000a81548173ffffffffffffffffffffffffffffffffffffffff021916908373ffffffffffffffffffffffffffffffffffffffff16021790555050565b620000c0620002bf60201b60201c565b73ffffffffffffffffffffffffffffffffffffffff163373ffffffffffffffffffffffffffffffffffffffff161462000145576040517f08c379a000000000000000000000000000000000000000000000000000000000815260040180806020018281038252602e815260200180620026c3602e913960400191505060405180910390fd5b80600160006101000a81548173ffffffffffffffffffffffffffffffffffffffff021916908373ffffffffffffffffffffffffffffffffffffffff160217905550600160009054906101000a900473ffffffffffffffffffffffffffffffffffffffff1673ffffffffffffffffffffffffffffffffffffffff1663a385e598306040518263ffffffff1660e01b8152600401808273ffffffffffffffffffffffffffffffffffffffff1673ffffffffffffffffffffffffffffffffffffffff168152602001915050602060405180830381600087803b1580156200022857600080fd5b505af11580156200023d573d6000803e3d6000fd5b505050506040513d60208110156200025457600080fd5b8101908080519060200190929190505050620002bc576040517f08c379a0000000000000000000000000000000000000000000000000000000008152600401808060200182810382526031815260200180620026f16031913960400191505060405180910390fd5b50565b60008060009054906101000a900473ffffffffffffffffffffffffffffffffffffffff16905090565b6123cb80620002f86000396000f3fe608060405234801561001057600080fd5b50600436106100885760003560e01c8063b2bdfa7b1161005b578063b2bdfa7b146102d9578063ccbf2de114610323578063f0eb53bb14610491578063f2fde38b146105fb57610088565b80634292dc3e1461008d5780634980e1be146101fb5780635ab1bd53146102455780638da5cb5b1461028f575b600080fd5b6101e1600480360360608110156100a357600080fd5b81019080803590602001906401000000008111156100c057600080fd5b8201836020820111156100d257600080fd5b803590602001918460208302840111640100000000831117156100f457600080fd5b919080806020026020016040519081016040528093929190818152602001838360200280828437600081840152601f19601f8201169050808301925050505050505091929192908035906020019064010000000081111561015457600080fd5b82018360208201111561016657600080fd5b8035906020019184602083028401116401000000008311171561018857600080fd5b919080806020026020016040519081016040528093929190818152602001838360200280828437600081840152601f19601f8201169050808301925050505050505091929192908035906020019092919050505061063f565b604051808215151515815260200191505060405180910390f35b610203610887565b604051808273ffffffffffffffffffffffffffffffffffffffff1673ffffffffffffffffffffffffffffffffffffffff16815260200191505060405180910390f35b61024d6108ad565b604051808273ffffffffffffffffffffffffffffffffffffffff1673ffffffffffffffffffffffffffffffffffffffff16815260200191505060405180910390f35b6102976108d7565b604051808273ffffffffffffffffffffffffffffffffffffffff1673ffffffffffffffffffffffffffffffffffffffff16815260200191505060405180910390f35b6102e1610900565b604051808273ffffffffffffffffffffffffffffffffffffffff1673ffffffffffffffffffffffffffffffffffffffff16815260200191505060405180910390f35b6104776004803603606081101561033957600080fd5b810190808035906020019064010000000081111561035657600080fd5b82018360208201111561036857600080fd5b8035906020019184602083028401116401000000008311171561038a57600080fd5b919080806020026020016040519081016040528093929190818152602001838360200280828437600081840152601f19601f820116905080830192505050505050509192919290803590602001906401000000008111156103ea57600080fd5b8201836020820111156103fc57600080fd5b8035906020019184602083028401116401000000008311171561041e57600080fd5b919080806020026020016040519081016040528093929190818152602001838360200280828437600081840152601f19601f82011690508083019250505050505050919291929080359060200190929190505050610925565b604051808215151515815260200191505060405180910390f35b6105e5600480360360608110156104a757600080fd5b81019080803590602001906401000000008111156104c457600080fd5b8201836020820111156104d657600080fd5b803590602001918460208302840111640100000000831117156104f857600080fd5b919080806020026020016040519081016040528093929190818152602001838360200280828437600081840152601f19601f8201169050808301925050505050505091929192908035906020019064010000000081111561055857600080fd5b82018360208201111561056a57600080fd5b8035906020019184602083028401116401000000008311171561058c57600080fd5b919080806020026020016040519081016040528093929190818152602001838360200280828437600081840152601f19601f820116905080830192505050505050509192919290803590602001909291905050506109ac565b6040518082815260200191505060405180910390f35b61063d6004803603602081101561061157600080fd5b81019080803573ffffffffffffffffffffffffffffffffffffffff1690602001909291905050506115a7565b005b600080600160009054906101000a900473ffffffffffffffffffffffffffffffffffffffff1673ffffffffffffffffffffffffffffffffffffffff1663ea874afa868686306040518563ffffffff1660e01b81526004018080602001806020018581526020018473ffffffffffffffffffffffffffffffffffffffff1673ffffffffffffffffffffffffffffffffffffffff168152602001838103835287818151815260200191508051906020019060200280838360005b838110156107125780820151818401526020810190506106f7565b50505050905001838103825286818151815260200191508051906020019060200280838360005b83811015610754578082015181840152602081019050610739565b505050509050019650505050505050602060405180830381600087803b15801561077d57600080fd5b505af1158015610791573d6000803e3d6000fd5b505050506040513d60208110156107a757600080fd5b8101908080519060200190929190505050905060006107c78686866109ac565b14156107d657600191506107db565b600091505b600160009054906101000a900473ffffffffffffffffffffffffffffffffffffffff1673ffffffffffffffffffffffffffffffffffffffff1663f0a1ec2b8285856040518463ffffffff1660e01b815260040180848152602001838152602001821515151581526020019350505050600060405180830381600087803b15801561086457600080fd5b505af1158015610878573d6000803e3d6000fd5b50505050819150509392505050565b600160009054906101000a900473ffffffffffffffffffffffffffffffffffffffff1681565b6000600160009054906101000a900473ffffffffffffffffffffffffffffffffffffffff16905090565b60008060009054906101000a900473ffffffffffffffffffffffffffffffffffffffff16905090565b6000809054906101000a900473ffffffffffffffffffffffffffffffffffffffff1681565b6000600160009054906101000a900473ffffffffffffffffffffffffffffffffffffffff1673ffffffffffffffffffffffffffffffffffffffff163373ffffffffffffffffffffffffffffffffffffffff161461098157600080fd5b600061098e8585856109ac565b141561099d57600190506109a2565b600090505b8090509392505050565b60006109b66120f0565b6109be612124565b606060405180604001604052806000815260200160008152509150600160009054906101000a900473ffffffffffffffffffffffffffffffffffffffff1673ffffffffffffffffffffffffffffffffffffffff16636ed5e9ba866040518263ffffffff1660e01b815260040180828152602001915050600060405180830381600087803b158015610a4e57600080fd5b505af1158015610a62573d6000803e3d6000fd5b505050506040513d6000823e3d601f19601f820116820180604052506020811015610a8c57600080fd5b810190808051640100000000811115610aa457600080fd5b82810190506020810184811115610aba57600080fd5b8151856020820283011164010000000082111715610ad757600080fd5b50509291905050509050604051806040016040528088600081518110610af957fe5b6020026020010151815260200188600181518110610b1357fe5b60200260200101518152508360000181905250604051806040016040528060405180604001604052808a600281518110610b4957fe5b602002602001015181526020018a600381518110610b6357fe5b6020026020010151815250815260200160405180604001604052808a600481518110610b8b57fe5b602002602001015181526020018a600581518110610ba557fe5b60200260200101518152508152508360200181905250604051806040016040528088600681518110610bd357fe5b6020026020010151815260200188600781518110610bed57fe5b602002602001015181525083604001819052506040518060400160405280604051806040016040528084600081518110610c2357fe5b6020026020010151815260200184600181518110610c3d57fe5b60200260200101518152508152602001604051806040016040528084600281518110610c6557fe5b6020026020010151815260200184600381518110610c7f57fe5b60200260200101518152508152506002600001600082015181600001906002610ca992919061213e565b50602082015181600201906002610cc192919061213e565b50905050604051806040016040528082600481518110610cdd57fe5b6020026020010151815260200182600581518110610cf757fe5b6020026020010151815250600260040160008201518160000155602082015181600101559050506040518060400160405280604051806040016040528084600681518110610d4157fe5b6020026020010151815260200184600781518110610d5b57fe5b60200260200101518152508152602001604051806040016040528084600881518110610d8357fe5b6020026020010151815260200184600981518110610d9d57fe5b60200260200101518152508152506002600601600082015181600001906002610dc792919061213e565b50602082015181600201906002610ddf92919061213e565b50905050604051806040016040528082600a81518110610dfb57fe5b6020026020010151815260200182600b81518110610e1557fe5b60200260200101518152506002600a0160008201518160000155602082015181600101559050506040518060400160405280604051806040016040528084600c81518110610e5f57fe5b6020026020010151815260200184600d81518110610e7957fe5b60200260200101518152508152602001604051806040016040528084600e81518110610ea157fe5b6020026020010151815260200184600f81518110610ebb57fe5b60200260200101518152508152506002600c01600082015181600001906002610ee592919061213e565b50602082015181600201906002610efd92919061213e565b509050506002601082510381610f0f57fe5b04600260100181610f20919061217e565b5060008090506000601090505b8251811015610fba576040518060400160405280848381518110610f4d57fe5b60200260200101518152602001846001840181518110610f6957fe5b602002602001015181525060026010018380600101945081548110610f8a57fe5b90600052602060002090600202016000820151816000015560208201518160010155905050600281019050610f2d565b5060026010018054905060018851011461101f576040517f08c379a000000000000000000000000000000000000000000000000000000000815260040180806020018281038252602c815260200180612374602c913960400191505060405180910390fd5b60008090505b87518110156110a2576110938461108e6002601001600185018154811061104857fe5b9060005260206000209060020201604051806040016040529081600082015481526020016001820154815250508b858151811061108157fe5b6020026020010151611716565b611813565b93508080600101915050611025565b506110ea8360026010016000815481106110b857fe5b906000526020600020906002020160405180604001604052908160008201548152602001600182015481525050611813565b92506113cc60026004016040518060400160405290816000820154815260200160018201548152505060026006016040518060400160405290816000820160028060200260405190810160405280929190826002801561115f576020028201915b81548152602001906001019080831161114b575b50505050508152602001600282016002806020026040519081016040528092919082600280156111a4576020028201915b815481526020019060010190808311611190575b505050505081525050856002600c01604051806040016040529081600082016002806020026040519081016040528092919082600280156111fa576020028201915b8154815260200190600101908083116111e6575b505050505081526020016002820160028060200260405190810160405280929190826002801561123f576020028201915b81548152602001906001019080831161122b575b5050505050815250508860400151600260000160405180604001604052908160008201600280602002604051908101604052809291908260028015611299576020028201915b815481526020019060010190808311611285575b50505050508152602001600282016002806020026040519081016040528092919082600280156112de576020028201915b8154815260200190600101908083116112ca575b50505050508152505061132061131b8c60000151600260040160405180604001604052908160008201548152602001600182015481525050611813565b61192f565b6113c78c60200151600260060160405180604001604052908160008201600280602002604051908101604052809291908260028015611374576020028201915b815481526020019060010190808311611360575b50505050508152602001600282016002806020026040519081016040528092919082600280156113b9576020028201915b8154815260200190600101908083116113a5575b5050505050815250506119c9565b611bc7565b6113dd5760019450505050506115a0565b6114b584600001516002600c0160405180604001604052908160008201600280602002604051908101604052809291908260028015611431576020028201915b81548152602001906001019080831161141d575b5050505050815260200160028201600280602002604051908101604052809291908260028015611476576020028201915b815481526020019060010190808311611462575b5050505050815250506114ab6002600a016040518060400160405290816000820154815260200160018201548152505061192f565b8760200151611d2b565b6114c65760029450505050506115a0565b6114ce6120f0565b93506114d8612124565b9250606091506002600001600080820160006114f491906121b0565b60028201600061150491906121b0565b505060026004016000808201600090556001820160009055505060026006016000808201600061153491906121b0565b60028201600061154491906121b0565b50506002600a01600080820160009055600182016000905550506002600c016000808201600061157491906121b0565b60028201600061158491906121b0565b50506002601001600061159791906121be565b60009450505050505b9392505050565b6115af6108d7565b73ffffffffffffffffffffffffffffffffffffffff163373ffffffffffffffffffffffffffffffffffffffff1614611632576040517f08c379a000000000000000000000000000000000000000000000000000000000815260040180806020018281038252602e815260200180612346602e913960400191505060405180910390fd5b600073ffffffffffffffffffffffffffffffffffffffff168173ffffffffffffffffffffffffffffffffffffffff16141561166c57600080fd5b7f8be0079c531659141344cd1fd0a4f28419497f9722a3daafe3b4186f6b6457e06116956108d7565b82604051808373ffffffffffffffffffffffffffffffffffffffff1673ffffffffffffffffffffffffffffffffffffffff1681526020018273ffffffffffffffffffffffffffffffffffffffff1673ffffffffffffffffffffffffffffffffffffffff1681526020019250505060405180910390a161171381611e27565b50565b61171e612124565b6117266121e2565b83600001518160006003811061173857fe5b60200201818152505083602001518160016003811061175357fe5b602002018181525050828160026003811061176a57fe5b6020020181815250506000606083608084600060076107d05a03f19050806000811461179557611797565bfe5b508061180b576040517f08c379a000000000000000000000000000000000000000000000000000000000815260040180806020018281038252601f8152602001807f4543207363616c6172206d756c7469706c69636174696f6e206661696c65640081525060200191505060405180910390fd5b505092915050565b61181b612124565b611823612204565b83600001518160006004811061183557fe5b60200201818152505083602001518160016004811061185057fe5b60200201818152505082600001518160026004811061186b57fe5b60200201818152505082602001518160036004811061188657fe5b602002018181525050600060608360c084600060066107d05a03f1905080600081146118b1576118b3565bfe5b5080611927576040517f08c379a00000000000000000000000000000000000000000000000000000000081526004018080602001828103825260128152602001807f4543206164646974696f6e206661696c6564000000000000000000000000000081525060200191505060405180910390fd5b505092915050565b611937612124565b60007f30644e72e131a029b85045b68181585d97816a916871ca8d3c208c16d87cfd47905060008360000151148015611974575060008360200151145b156119985760405180604001604052806000815260200160008152509150506119c4565b604051806040016040528084600001518152602001828560200151816119ba57fe5b0683038152509150505b919050565b6119d1612226565b73__BN256G2_______________________________6361a931ec84600001516001600281106119fc57fe5b60200201518560000151600060028110611a1257fe5b60200201518660200151600160028110611a2857fe5b60200201518760200151600060028110611a3e57fe5b60200201518760000151600160028110611a5457fe5b60200201518860000151600060028110611a6a57fe5b60200201518960200151600160028110611a8057fe5b60200201518a60200151600060028110611a9657fe5b60200201516040518963ffffffff1660e01b8152600401808981526020018881526020018781526020018681526020018581526020018481526020018381526020018281526020019850505050505050505060806040518083038186803b158015611b0057600080fd5b505af4158015611b14573d6000803e3d6000fd5b505050506040513d6080811015611b2a57600080fd5b81019080805190602001909291908051906020019092919080519060200190929190805190602001909291905050508460000151600160028110611b6a57fe5b602002018560000151600060028110611b7f57fe5b602002018660200151600160028110611b9457fe5b602002018760200151600060028110611ba957fe5b60200201848152508481525084815250848152505050505092915050565b600060606004604051908082528060200260200182016040528015611c0657816020015b611bf361224c565b815260200190600190039081611beb5790505b50905060606004604051908082528060200260200182016040528015611c4657816020015b611c33612266565b815260200190600190039081611c2b5790505b5090508a82600081518110611c5757fe5b60200260200101819052508882600181518110611c7057fe5b60200260200101819052508682600281518110611c8957fe5b60200260200101819052508482600381518110611ca257fe5b60200260200101819052508981600081518110611cbb57fe5b60200260200101819052508781600181518110611cd457fe5b60200260200101819052508581600281518110611ced57fe5b60200260200101819052508381600381518110611d0657fe5b6020026020010181905250611d1b8282611e6a565b9250505098975050505050505050565b600060606002604051908082528060200260200182016040528015611d6a57816020015b611d5761224c565b815260200190600190039081611d4f5790505b50905060606002604051908082528060200260200182016040528015611daa57816020015b611d97612266565b815260200190600190039081611d8f5790505b5090508682600081518110611dbb57fe5b60200260200101819052508482600181518110611dd457fe5b60200260200101819052508581600081518110611ded57fe5b60200260200101819052508381600181518110611e0657fe5b6020026020010181905250611e1b8282611e6a565b92505050949350505050565b806000806101000a81548173ffffffffffffffffffffffffffffffffffffffff021916908373ffffffffffffffffffffffffffffffffffffffff16021790555050565b60008151835114611ec6576040517f08c379a00000000000000000000000000000000000000000000000000000000081526004018080602001828103825260218152602001806123256021913960400191505060405180910390fd5b6000835190506000600682029050606081604051908082528060200260200182016040528015611f055781602001602082028038833980820191505090505b50905060008090505b838110156120ab57868181518110611f2257fe5b602002602001015160000151826000600684020181518110611f4057fe5b602002602001018181525050868181518110611f5857fe5b602002602001015160200151826001600684020181518110611f7657fe5b602002602001018181525050858181518110611f8e57fe5b602002602001015160000151600060028110611fa657fe5b6020020151826002600684020181518110611fbd57fe5b602002602001018181525050858181518110611fd557fe5b602002602001015160000151600160028110611fed57fe5b602002015182600360068402018151811061200457fe5b60200260200101818152505085818151811061201c57fe5b60200260200101516020015160006002811061203457fe5b602002015182600460068402018151811061204b57fe5b60200260200101818152505085818151811061206357fe5b60200260200101516020015160016002811061207b57fe5b602002015182600560068402018151811061209257fe5b6020026020010181815250508080600101915050611f0e565b506120b461228c565b60006020826020860260208601600060086107d05a03f190506000826000600181106120dc57fe5b602002015114159550505050505092915050565b60405180610100016040528061210461224c565b8152602001612111612266565b815260200161211e61224c565b81525090565b604051806040016040528060008152602001600081525090565b826002810192821561216d579160200282015b8281111561216c578251825591602001919060010190612151565b5b50905061217a91906122ae565b5090565b8154818355818111156121ab576002028160020283600052602060002091820191016121aa91906122d3565b5b505050565b506000815560010160009055565b50805460008255600202906000526020600020908101906121df91906122d3565b50565b6040518060600160405280600390602082028038833980820191505090505090565b6040518060800160405280600490602082028038833980820191505090505090565b6040518060800160405280612239612302565b8152602001612246612302565b81525090565b604051806040016040528060008152602001600081525090565b6040518060800160405280612279612302565b8152602001612286612302565b81525090565b6040518060200160405280600190602082028038833980820191505090505090565b6122d091905b808211156122cc5760008160009055506001016122b4565b5090565b90565b6122ff91905b808211156122fb576000808201600090556001820160009055506002016122d9565b5090565b90565b604051806040016040528060029060208202803883398082019150509050509056fe45432070616972696e67207031206c656e67746820213d207032206c656e677468596f7520617265206e6f7420617574686f726973656420746f20696e766f6b6520746869732066756e6374696f6e4c656e677468206f6620696e707574735b5d206f7220766b2e717565727920697320696e636f727265637421a165627a7a723058207cdd8f7a86ace5787b616292f544d3e932dc5626592aedb9ef446ba3a2e296990029596f7520617265206e6f7420617574686f726973656420746f20696e766f6b6520746869732066756e6374696f6e526567697374726174696f6e206f66207468697320566572696669657220636f6e747261637420686173206661696c6564",
  "source": "/**\nCREDITS:\n\n// For the Elliptic Curve Pairing operations and functions verify() and verifyCalculation():\n// This file is MIT Licensed.\n//\n// Copyright 2017 Christian Reitwiessner\n// Permission is hereby granted, free of charge, to any person obtaining a copy of this software and associated documentation files (the \"Software\"), to deal in the Software without restriction, including without limitation the rights to use, copy, modify, merge, publish, distribute, sublicense, and/or sell copies of the Software, and to permit persons to whom the Software is furnished to do so, subject to the following conditions:\n// The above copyright notice and this permission notice shall be included in all copies or substantial portions of the Software.\n// THE SOFTWARE IS PROVIDED \"AS IS\", WITHOUT WARRANTY OF ANY KIND, EXPRESS OR IMPLIED, INCLUDING BUT NOT LIMITED TO THE WARRANTIES OF MERCHANTABILITY, FITNESS FOR A PARTICULAR PURPOSE AND NONINFRINGEMENT. IN NO EVENT SHALL THE AUTHORS OR COPYRIGHT HOLDERS BE LIABLE FOR ANY CLAIM, DAMAGES OR OTHER LIABILITY, WHETHER IN AN ACTION OF CONTRACT, TORT OR OTHERWISE, ARISING FROM, OUT OF OR IN CONNECTION WITH THE SOFTWARE OR THE USE OR OTHER DEALINGS IN THE SOFTWARE.\n// More information at https://gist.github.com/chriseth/f9be9d9391efc5beb9704255a8e2989d\n\nStandardisation effort:\n\nInterface proposal & example implementation by Michael Connor, EY, 2019, including:\nFunctions, arrangement, logic, inheritance structure, and interactions with a proposed Verifier_Registry interface.\n\nWith thanks to:\nDuncan Westland\nChaitanya Konda\nHarry R\n*/\n\n/**\n@title GM17_v0\n@dev Example Verifier Implementation - GM17 proof verification.\n@notice Do not use this example in any production code!\n*/\n\npragma solidity ^0.5.8;\n\nimport \"./Ownable.sol\"; //Ownable functions allow initializers to be re-initialised every time an upgrade happens\nimport \"./GM17_lib_v0.sol\";\nimport \"./Pairing_v1.sol\";\nimport \"./Verifier_Registry_Interface.sol\";\n\ncontract GM17_v0 is Ownable {\n\n  using GM17_lib_v0 for GM17_lib_v0.Vk_GM17_v0;\n  using GM17_lib_v0 for GM17_lib_v0.Proof_GM17_v0;\n  using Pairing_v1 for *;\n\n  Verifier_Registry_Interface public R; //R for 'Registry'\n  GM17_lib_v0.Vk_GM17_v0 vk;\n\n  //bytes32 priorProofId;\n  //bytes32 priorVkId;\n  //bool priorResult;\n\n\n\n  constructor(address _registry) public {\n      registerMe(_registry);\n  }\n\n  modifier onlyRegistry() {\n    require(msg.sender == address(R));\n    _;\n  }\n\n  function registerMe(address _registry) internal onlyOwner {\n      R = Verifier_Registry_Interface(_registry);\n      require(R.registerVerifierContract(address(this)), \"Registration of this Verifier contract has failed\");\n  }\n\n\n//DOESN'T WORK IN TRUFFLE TESTS - BUT IT SHOULD.\n  function verify(uint256[] memory _proof, uint256[] memory _inputs, bytes32 _vkId) public returns (bool result) {\n\n      bytes32 proofId;\n      proofId = R.submitProof(_proof, _inputs, _vkId, address(this));\n\n      if (verificationCalculation(_proof, _inputs, _vkId) == 0) {\n          result = true;\n      } else {\n          result = false;\n      }\n\n      R.attestProof(proofId, _vkId, result);\n\n      return result;\n  }\n\n  function verifyFromRegistry(uint256[] memory _proof, uint256[] memory _inputs, bytes32 _vkId) public onlyRegistry returns (bool result) {\n\n      if (verificationCalculation(_proof, _inputs, _vkId) == 0) {\n          result = true;\n      } else {\n          result = false;\n      }\n\n      return result;\n  }\n\n  function verificationCalculation(uint256[] memory _proof, uint256[] memory _inputs, bytes32 _vkId) public returns (uint) {\n\n      GM17_lib_v0.Proof_GM17_v0 memory proof;\n      Points.G1Point memory vk_dot_inputs;\n      uint256[] memory _vk;\n\n      vk_dot_inputs = Points.G1Point(0, 0); //initialise\n\n      //get this vk from the registry\n      _vk = R.getVk(_vkId);\n\n      proof.A = Points.G1Point(_proof[0], _proof[1]);\n      proof.B = Points.G2Point([_proof[2], _proof[3]], [_proof[4], _proof[5]]);\n      proof.C = Points.G1Point(_proof[6], _proof[7]);\n\n      vk.H = Points.G2Point([_vk[0],_vk[1]],[_vk[2],_vk[3]]);\n      vk.Galpha = Points.G1Point(_vk[4],_vk[5]);\n      vk.Hbeta = Points.G2Point([_vk[6],_vk[7]],[_vk[8],_vk[9]]);\n      vk.Ggamma = Points.G1Point(_vk[10],_vk[11]);\n      vk.Hgamma = Points.G2Point([_vk[12],_vk[13]],[_vk[14],_vk[15]]);\n\n      vk.query.length = (_vk.length - 16)/2;\n      uint j = 0;\n      for (uint i = 16; i < _vk.length; i+=2) {\n        vk.query[j++] = Points.G1Point(_vk[i],_vk[i+1]);\n      }\n\n      require(_inputs.length + 1 == vk.query.length, \"Length of inputs[] or vk.query is incorrect!\");\n\n      for (uint i = 0; i < _inputs.length; i++)\n          vk_dot_inputs = Pairing_v1.addition(vk_dot_inputs, Pairing_v1.scalar_mul(vk.query[i + 1], _inputs[i]));\n\n      vk_dot_inputs = Pairing_v1.addition(vk_dot_inputs, vk.query[0]);\n\n      /**\n       * e(A*G^{alpha}, B*H^{beta}) = e(G^{alpha}, H^{beta}) * e(G^{psi}, H^{gamma})\n       *                              * e(C, H)\n       * where psi = \\sum_{i=0}^l input_i pvk.query[i]\n       */\n      if (!Pairing_v1.pairingProd4(vk.Galpha, vk.Hbeta, vk_dot_inputs, vk.Hgamma, proof.C, vk.H, Pairing_v1.negate(Pairing_v1.addition(proof.A, vk.Galpha)), Pairing_v1.addition2(proof.B, vk.Hbeta))) {\n          return 1;\n      }\n\n\n      /**\n       * e(A, H^{gamma}) = e(G^{gamma}, B)\n       */\n      if (!Pairing_v1.pairingProd2(proof.A, vk.Hgamma, Pairing_v1.negate(vk.Ggamma), proof.B)) {\n          return 2;\n      }\n\n      delete proof;\n      delete vk_dot_inputs;\n      delete _vk;\n      delete vk.H;\n      delete vk.Galpha;\n      delete vk.Hbeta;\n      delete vk.Ggamma;\n      delete vk.Hgamma;\n      delete vk.query;\n\n      return 0;\n\n  }\n\n  function getRegistry() public view returns (address) {\n      return address(R);\n  }\n\n}\n",
  "sourcePath": "/Users/hz/workspace/nightfall/contracts/GM17_v0.sol",
  "compiler": {
    "name": "solc",
    "version": "0.5.8+commit.23d335f2.Emscripten.clang"
  },
  "schemaVersion": "3.0.11",
  "updatedAt": "2019-09-16T13:04:36.738Z",
  "devdoc": {
    "methods": {
      "owner()": {
        "details": "Tells the address of the owner",
        "return": "the address of the owner"
      },
      "transferOwnership(address)": {
        "details": "Allows the current owner to transfer control of the contract to a newOwner.",
        "params": {
          "newOwner": "The address to transfer ownership to."
        }
      }
    }
  },
  "userdoc": {
    "methods": {}
  }
}