{
  "contractName": "NFTokenShield",
  "abi": [
    {
      "constant": true,
      "inputs": [],
      "name": "verifier",
      "outputs": [
        {
          "name": "",
          "type": "address"
        }
      ],
      "payable": false,
      "stateMutability": "view",
      "type": "function"
    },
    {
      "constant": true,
      "inputs": [],
      "name": "burnVkId",
      "outputs": [
        {
          "name": "",
          "type": "bytes32"
        }
      ],
      "payable": false,
      "stateMutability": "view",
      "type": "function"
    },
    {
      "constant": true,
      "inputs": [],
      "name": "leafIndex",
      "outputs": [
        {
          "name": "",
          "type": "uint256"
        }
      ],
      "payable": false,
      "stateMutability": "view",
      "type": "function"
    },
    {
      "constant": true,
      "inputs": [
        {
          "name": "",
          "type": "bytes27"
        }
      ],
      "name": "ns",
      "outputs": [
        {
          "name": "",
          "type": "bytes27"
        }
      ],
      "payable": false,
      "stateMutability": "view",
      "type": "function"
    },
    {
      "constant": true,
      "inputs": [],
      "name": "mintVkId",
      "outputs": [
        {
          "name": "",
          "type": "bytes32"
        }
      ],
      "payable": false,
      "stateMutability": "view",
      "type": "function"
    },
    {
      "constant": true,
      "inputs": [],
      "name": "verifierRegistry",
      "outputs": [
        {
          "name": "",
          "type": "address"
        }
      ],
      "payable": false,
      "stateMutability": "view",
      "type": "function"
    },
    {
      "constant": true,
      "inputs": [],
      "name": "owner",
      "outputs": [
        {
          "name": "",
          "type": "address"
        }
      ],
      "payable": false,
      "stateMutability": "view",
      "type": "function"
    },
    {
      "constant": true,
      "inputs": [],
      "name": "zCount",
      "outputs": [
        {
          "name": "",
          "type": "uint256"
        }
      ],
      "payable": false,
      "stateMutability": "view",
      "type": "function"
    },
    {
      "constant": true,
      "inputs": [],
      "name": "_owner",
      "outputs": [
        {
          "name": "",
          "type": "address"
        }
      ],
      "payable": false,
      "stateMutability": "view",
      "type": "function"
    },
    {
      "constant": true,
      "inputs": [
        {
          "name": "",
          "type": "bytes27"
        }
      ],
      "name": "zs",
      "outputs": [
        {
          "name": "",
          "type": "bytes27"
        }
      ],
      "payable": false,
      "stateMutability": "view",
      "type": "function"
    },
    {
      "constant": true,
      "inputs": [
        {
          "name": "",
          "type": "uint256"
        }
      ],
      "name": "M",
      "outputs": [
        {
          "name": "",
          "type": "bytes27"
        }
      ],
      "payable": false,
      "stateMutability": "view",
      "type": "function"
    },
    {
      "constant": true,
      "inputs": [],
      "name": "latestRoot",
      "outputs": [
        {
          "name": "",
          "type": "bytes27"
        }
      ],
      "payable": false,
      "stateMutability": "view",
      "type": "function"
    },
    {
      "constant": true,
      "inputs": [
        {
          "name": "",
          "type": "bytes27"
        }
      ],
      "name": "roots",
      "outputs": [
        {
          "name": "",
          "type": "bytes27"
        }
      ],
      "payable": false,
      "stateMutability": "view",
      "type": "function"
    },
    {
      "constant": false,
      "inputs": [
        {
          "name": "newOwner",
          "type": "address"
        }
      ],
      "name": "transferOwnership",
      "outputs": [],
      "payable": false,
      "stateMutability": "nonpayable",
      "type": "function"
    },
    {
      "constant": true,
      "inputs": [],
      "name": "transferVkId",
      "outputs": [
        {
          "name": "",
          "type": "bytes32"
        }
      ],
      "payable": false,
      "stateMutability": "view",
      "type": "function"
    },
    {
      "constant": true,
      "inputs": [],
      "name": "nfToken",
      "outputs": [
        {
          "name": "",
          "type": "address"
        }
      ],
      "payable": false,
      "stateMutability": "view",
      "type": "function"
    },
    {
      "inputs": [
        {
          "name": "_verifierRegistry",
          "type": "address"
        },
        {
          "name": "_verifier",
          "type": "address"
        },
        {
          "name": "_nfToken",
          "type": "address"
        }
      ],
      "payable": false,
      "stateMutability": "nonpayable",
      "type": "constructor"
    },
    {
      "anonymous": false,
      "inputs": [
        {
          "indexed": false,
          "name": "from",
          "type": "address"
        },
        {
          "indexed": false,
          "name": "to",
          "type": "address"
        },
        {
          "indexed": false,
          "name": "token_id",
          "type": "uint256"
        },
        {
          "indexed": false,
          "name": "token_index",
          "type": "uint256"
        }
      ],
      "name": "Mint",
      "type": "event"
    },
    {
      "anonymous": false,
      "inputs": [
        {
          "indexed": false,
          "name": "nullifier",
          "type": "bytes27"
        },
        {
          "indexed": false,
          "name": "token",
          "type": "bytes27"
        },
        {
          "indexed": false,
          "name": "token_index",
          "type": "uint256"
        }
      ],
      "name": "Transfer",
      "type": "event"
    },
    {
      "anonymous": false,
      "inputs": [
        {
          "indexed": false,
          "name": "tokenId",
          "type": "uint256"
        },
        {
          "indexed": false,
          "name": "payTo",
          "type": "address"
        },
        {
          "indexed": false,
          "name": "nullifier",
          "type": "bytes27"
        }
      ],
      "name": "Burn",
      "type": "event"
    },
    {
      "anonymous": false,
      "inputs": [
        {
          "indexed": false,
          "name": "newVerifierContract",
          "type": "address"
        }
      ],
      "name": "VerifierChanged",
      "type": "event"
    },
    {
      "anonymous": false,
      "inputs": [
        {
          "indexed": false,
          "name": "mintVkId",
          "type": "bytes32"
        },
        {
          "indexed": false,
          "name": "transferVkId",
          "type": "bytes32"
        },
        {
          "indexed": false,
          "name": "burnVkId",
          "type": "bytes32"
        }
      ],
      "name": "VkIdsChanged",
      "type": "event"
    },
    {
      "anonymous": false,
      "inputs": [
        {
          "indexed": false,
          "name": "previousOwner",
          "type": "address"
        },
        {
          "indexed": false,
          "name": "newOwner",
          "type": "address"
        }
      ],
      "name": "OwnershipTransferred",
      "type": "event"
    },
    {
      "constant": false,
      "inputs": [],
      "name": "close",
      "outputs": [],
      "payable": false,
      "stateMutability": "nonpayable",
      "type": "function"
    },
    {
      "constant": false,
      "inputs": [
        {
          "name": "_verifier",
          "type": "address"
        }
      ],
      "name": "changeVerifier",
      "outputs": [],
      "payable": false,
      "stateMutability": "nonpayable",
      "type": "function"
    },
    {
      "constant": true,
      "inputs": [],
      "name": "getVerifier",
      "outputs": [
        {
          "name": "",
          "type": "address"
        }
      ],
      "payable": false,
      "stateMutability": "view",
      "type": "function"
    },
    {
      "constant": false,
      "inputs": [
        {
          "name": "_mintVkId",
          "type": "bytes32"
        },
        {
          "name": "_transferVkId",
          "type": "bytes32"
        },
        {
          "name": "_burnVkId",
          "type": "bytes32"
        }
      ],
      "name": "setVkIds",
      "outputs": [],
      "payable": false,
      "stateMutability": "nonpayable",
      "type": "function"
    },
    {
      "constant": true,
      "inputs": [],
      "name": "getNFToken",
      "outputs": [
        {
          "name": "",
          "type": "address"
        }
      ],
      "payable": false,
      "stateMutability": "view",
      "type": "function"
    },
    {
      "constant": true,
      "inputs": [
        {
          "name": "",
          "type": "address"
        },
        {
          "name": "",
          "type": "address"
        },
        {
          "name": "",
          "type": "uint256"
        },
        {
          "name": "",
          "type": "bytes"
        }
      ],
      "name": "onERC721Received",
      "outputs": [
        {
          "name": "",
          "type": "bytes4"
        }
      ],
      "payable": false,
      "stateMutability": "pure",
      "type": "function"
    },
    {
      "constant": false,
      "inputs": [
        {
          "name": "_proof",
          "type": "uint256[]"
        },
        {
          "name": "_inputs",
          "type": "uint256[]"
        },
        {
          "name": "_vkId",
          "type": "bytes32"
        }
      ],
      "name": "mint",
      "outputs": [],
      "payable": false,
      "stateMutability": "nonpayable",
      "type": "function"
    },
    {
      "constant": false,
      "inputs": [
        {
          "name": "_proof",
          "type": "uint256[]"
        },
        {
          "name": "_inputs",
          "type": "uint256[]"
        },
        {
          "name": "_vkId",
          "type": "bytes32"
        }
      ],
      "name": "transfer",
      "outputs": [],
      "payable": false,
      "stateMutability": "nonpayable",
      "type": "function"
    },
    {
      "constant": false,
      "inputs": [
        {
          "name": "_proof",
          "type": "uint256[]"
        },
        {
          "name": "_inputs",
          "type": "uint256[]"
        },
        {
          "name": "_vkId",
          "type": "bytes32"
        }
      ],
      "name": "burn",
      "outputs": [],
      "payable": false,
      "stateMutability": "nonpayable",
      "type": "function"
    }
  ],
  "bytecode": "0x608060405234801561001057600080fd5b5060405160608062002c948339810180604052606081101561003157600080fd5b810190808051906020019092919080519060200190929190805190602001909291905050506100653361017160201b60201c565b33600160006101000a81548173ffffffffffffffffffffffffffffffffffffffff021916908373ffffffffffffffffffffffffffffffffffffffff16021790555082600960006101000a81548173ffffffffffffffffffffffffffffffffffffffff021916908373ffffffffffffffffffffffffffffffffffffffff16021790555081600a60006101000a81548173ffffffffffffffffffffffffffffffffffffffff021916908373ffffffffffffffffffffffffffffffffffffffff16021790555080600b60006101000a81548173ffffffffffffffffffffffffffffffffffffffff021916908373ffffffffffffffffffffffffffffffffffffffff1602179055505050506101b4565b806000806101000a81548173ffffffffffffffffffffffffffffffffffffffff021916908373ffffffffffffffffffffffffffffffffffffffff16021790555050565b612ad080620001c46000396000f3fe608060405234801561001057600080fd5b50600436106101735760003560e01c806386a23a6b116100de578063cf04fb9411610097578063eef14e0d11610071578063eef14e0d146109cd578063f2fde38b14610a27578063f64964fb14610a6b578063fe7ee89914610a8957610173565b8063cf04fb9414610909578063d6c855291461094d578063d7b0fef11461099f57610173565b806386a23a6b146107695780638da5cb5b146107b3578063a3685625146107fd578063a54557f31461081b578063b2bdfa7b14610865578063c70e4527146108af57610173565b80634b76fd6f116101305780634b76fd6f1461059b5780635cdaa5f1146105b95780635dd5de09146105d7578063624bca631461061957806369ae254a146106735780637200c4ad1461069157610173565b8063150b7a021461017857806326ab7021146102cf5780632b7ac3f3146103a7578063374227c9146103f157806343d726d61461054757806346657fe914610551575b600080fd5b61027b6004803603608081101561018e57600080fd5b81019080803573ffffffffffffffffffffffffffffffffffffffff169060200190929190803573ffffffffffffffffffffffffffffffffffffffff16906020019092919080359060200190929190803590602001906401000000008111156101f557600080fd5b82018360208201111561020757600080fd5b8035906020019184600183028401116401000000008311171561022957600080fd5b91908080601f016020809104026020016040519081016040528093929190818152602001838380828437600081840152601f19601f820116905080830192505050505050509192919290505050610ad3565b60405180827bffffffffffffffffffffffffffffffffffffffffffffffffffffffff19167bffffffffffffffffffffffffffffffffffffffffffffffffffffffff1916815260200191505060405180910390f35b6103a5600480360360608110156102e557600080fd5b810190808035906020019064010000000081111561030257600080fd5b82018360208201111561031457600080fd5b8035906020019184602083028401116401000000008311171561033657600080fd5b90919293919293908035906020019064010000000081111561035757600080fd5b82018360208201111561036957600080fd5b8035906020019184602083028401116401000000008311171561038b57600080fd5b909192939192939080359060200190929190505050610af8565b005b6103af6110d3565b604051808273ffffffffffffffffffffffffffffffffffffffff1673ffffffffffffffffffffffffffffffffffffffff16815260200191505060405180910390f35b6105456004803603606081101561040757600080fd5b810190808035906020019064010000000081111561042457600080fd5b82018360208201111561043657600080fd5b8035906020019184602083028401116401000000008311171561045857600080fd5b919080806020026020016040519081016040528093929190818152602001838360200280828437600081840152601f19601f820116905080830192505050505050509192919290803590602001906401000000008111156104b857600080fd5b8201836020820111156104ca57600080fd5b803590602001918460208302840111640100000000831117156104ec57600080fd5b919080806020026020016040519081016040528093929190818152602001838360200280828437600081840152601f19601f820116905080830192505050505050509192919290803590602001909291905050506110f9565b005b61054f6116ee565b005b6105596117b4565b604051808273ffffffffffffffffffffffffffffffffffffffff1673ffffffffffffffffffffffffffffffffffffffff16815260200191505060405180910390f35b6105a36117de565b6040518082815260200191505060405180910390f35b6105c16117e4565b6040518082815260200191505060405180910390f35b610617600480360360608110156105ed57600080fd5b810190808035906020019092919080359060200190929190803590602001909291905050506117ea565b005b61064d6004803603602081101561062f57600080fd5b81019080803564ffffffffff19169060200190929190505050611c42565b604051808264ffffffffff191664ffffffffff1916815260200191505060405180910390f35b61067b611c62565b6040518082815260200191505060405180910390f35b610767600480360360608110156106a757600080fd5b81019080803590602001906401000000008111156106c457600080fd5b8201836020820111156106d657600080fd5b803590602001918460208302840111640100000000831117156106f857600080fd5b90919293919293908035906020019064010000000081111561071957600080fd5b82018360208201111561072b57600080fd5b8035906020019184602083028401116401000000008311171561074d57600080fd5b909192939192939080359060200190929190505050611c68565b005b6107716121c1565b604051808273ffffffffffffffffffffffffffffffffffffffff1673ffffffffffffffffffffffffffffffffffffffff16815260200191505060405180910390f35b6107bb6121e7565b604051808273ffffffffffffffffffffffffffffffffffffffff1673ffffffffffffffffffffffffffffffffffffffff16815260200191505060405180910390f35b610805612210565b6040518082815260200191505060405180910390f35b610823612216565b604051808273ffffffffffffffffffffffffffffffffffffffff1673ffffffffffffffffffffffffffffffffffffffff16815260200191505060405180910390f35b61086d612240565b604051808273ffffffffffffffffffffffffffffffffffffffff1673ffffffffffffffffffffffffffffffffffffffff16815260200191505060405180910390f35b6108e3600480360360208110156108c557600080fd5b81019080803564ffffffffff19169060200190929190505050612265565b604051808264ffffffffff191664ffffffffff1916815260200191505060405180910390f35b61094b6004803603602081101561091f57600080fd5b81019080803573ffffffffffffffffffffffffffffffffffffffff169060200190929190505050612285565b005b6109796004803603602081101561096357600080fd5b81019080803590602001909291905050506123b6565b604051808264ffffffffff191664ffffffffff1916815260200191505060405180910390f35b6109a76123d6565b604051808264ffffffffff191664ffffffffff1916815260200191505060405180910390f35b610a01600480360360208110156109e357600080fd5b81019080803564ffffffffff191690602001909291905050506123e9565b604051808264ffffffffff191664ffffffffff1916815260200191505060405180910390f35b610a6960048036036020811015610a3d57600080fd5b81019080803573ffffffffffffffffffffffffffffffffffffffff169060200190929190505050612409565b005b610a73612578565b6040518082815260200191505060405180910390f35b610a9161257e565b604051808273ffffffffffffffffffffffffffffffffffffffff1673ffffffffffffffffffffffffffffffffffffffff16815260200191505060405180910390f35b600060405180806129b7602f9139602f01905060405180910390209050949350505050565b600d548114610b6f576040517f08c379a000000000000000000000000000000000000000000000000000000000815260040180806020018281038252600e8152602001807f496e636f727265637420766b496400000000000000000000000000000000000081525060200191505060405180910390fd5b6000600a60009054906101000a900473ffffffffffffffffffffffffffffffffffffffff1673ffffffffffffffffffffffffffffffffffffffff16634292dc3e87878787876040518663ffffffff1660e01b81526004018080602001806020018481526020018381038352888882818152602001925060200280828437600081840152601f19601f8201169050808301925050508381038252868682818152602001925060200280828437600081840152601f19601f820116905080830192505050975050505050505050602060405180830381600087803b158015610c5457600080fd5b505af1158015610c68573d6000803e3d6000fd5b505050506040513d6020811015610c7e57600080fd5b8101908080519060200190929190505050905080610ce7576040517f08c379a000000000000000000000000000000000000000000000000000000000815260040180806020018281038252602f8152602001806129e6602f913960400191505060405180910390fd5b6000610d1985856001818110610cf957fe5b9050602002013586866000818110610d0d57fe5b905060200201356125a4565b90506000610d4d86866003818110610d2d57fe5b9050602002013587876002818110610d4157fe5b905060200201356125a4565b90506000610d8187876005818110610d6157fe5b9050602002013588886004818110610d7557fe5b905060200201356125a4565b9050600060281b600260008564ffffffffff191664ffffffffff1916815260200190815260200160002060009054906101000a900460281b64ffffffffff191614610e17576040517f08c379a0000000000000000000000000000000000000000000000000000000008152600401808060200182810382526029815260200180612a156029913960400191505060405180910390fd5b8164ffffffffff1916600560008464ffffffffff191664ffffffffff1916815260200190815260200160002060009054906101000a900460281b64ffffffffff191614610eaf576040517f08c379a0000000000000000000000000000000000000000000000000000000008152600401808060200182810382526039815260200180612a6c6039913960400191505060405180910390fd5b82600260008564ffffffffff191664ffffffffff1916815260200190815260200160002060006101000a8154817affffffffffffffffffffffffffffffffffffffffffffffffffffff021916908360281c021790555080600360008364ffffffffff191664ffffffffff1916815260200190815260200160002060006101000a8154817affffffffffffffffffffffffffffffffffffffffffffffffffffff021916908360281c0217905550600654600164010000000003016007819055508060046000600754815260200190815260200160002060006101000a8154817affffffffffffffffffffffffffffffffffffffffffffffffffffff021916908360281c02179055506000610fc36007546125c3565b905080600560008364ffffffffff191664ffffffffff1916815260200190815260200160002060006101000a8154817affffffffffffffffffffffffffffffffffffffffffffffffffffff021916908360281c021790555080600860006101000a8154817affffffffffffffffffffffffffffffffffffffffffffffffffffff021916908360281c02179055507fdaa9d3d6067f65e8327ceb9bf4e3e7db9d1efb6fa5fe2a2e6403584f7348c22584836006600081548092919060010191905055604051808464ffffffffff191664ffffffffff191681526020018364ffffffffff191664ffffffffff19168152602001828152602001935050505060405180910390a150505050505050505050565b600a60009054906101000a900473ffffffffffffffffffffffffffffffffffffffff1681565b600e548114611170576040517f08c379a000000000000000000000000000000000000000000000000000000000815260040180806020018281038252600e8152602001807f496e636f727265637420766b496400000000000000000000000000000000000081525060200191505060405180910390fd5b6000600a60009054906101000a900473ffffffffffffffffffffffffffffffffffffffff1673ffffffffffffffffffffffffffffffffffffffff16634292dc3e8585856040518463ffffffff1660e01b8152600401808060200180602001848152602001838103835286818151815260200191508051906020019060200280838360005b8381101561120f5780820151818401526020810190506111f4565b50505050905001838103825285818151815260200191508051906020019060200280838360005b83811015611251578082015181840152602081019050611236565b5050505090500195505050505050602060405180830381600087803b15801561127957600080fd5b505af115801561128d573d6000803e3d6000fd5b505050506040513d60208110156112a357600080fd5b810190808051906020019092919050505090508061130c576040517f08c379a000000000000000000000000000000000000000000000000000000000815260040180806020018281038252602f8152602001806129e6602f913960400191505060405180910390fd5b60006113408460018151811061131e57fe5b60200260200101518560008151811061133357fe5b6020026020010151612934565b90506000819050600061137b8660038151811061135957fe5b60200260200101518760028151811061136e57fe5b6020026020010151612934565b905060006113b18760058151811061138f57fe5b6020026020010151886004815181106113a457fe5b60200260200101516125a4565b905060006113e7886007815181106113c557fe5b6020026020010151896006815181106113da57fe5b60200260200101516125a4565b90508064ffffffffff1916600560008364ffffffffff191664ffffffffff1916815260200190815260200160002060009054906101000a900460281b64ffffffffff191614611481576040517f08c379a0000000000000000000000000000000000000000000000000000000008152600401808060200182810382526039815260200180612a6c6039913960400191505060405180910390fd5b600060281b600260008464ffffffffff191664ffffffffff1916815260200190815260200160002060009054906101000a900460281b64ffffffffff191614611515576040517f08c379a00000000000000000000000000000000000000000000000000000000081526004018080602001828103825260258152602001806129926025913960400191505060405180910390fd5b81600260008464ffffffffff191664ffffffffff1916815260200190815260200160002060006101000a8154817affffffffffffffffffffffffffffffffffffffffffffffffffffff021916908360281c0217905550600b60009054906101000a900473ffffffffffffffffffffffffffffffffffffffff1673ffffffffffffffffffffffffffffffffffffffff166342842e0e3086866040518463ffffffff1660e01b8152600401808473ffffffffffffffffffffffffffffffffffffffff1673ffffffffffffffffffffffffffffffffffffffff1681526020018373ffffffffffffffffffffffffffffffffffffffff1673ffffffffffffffffffffffffffffffffffffffff1681526020018281526020019350505050600060405180830381600087803b15801561164857600080fd5b505af115801561165c573d6000803e3d6000fd5b505050507fd50a36185136b1e3a60c7cbd5337bd68879da4f4248aa14fa7ff352cc6d2c4e0838584604051808481526020018373ffffffffffffffffffffffffffffffffffffffff1673ffffffffffffffffffffffffffffffffffffffff1681526020018264ffffffffff191664ffffffffff19168152602001935050505060405180910390a1505050505050505050565b6116f66121e7565b73ffffffffffffffffffffffffffffffffffffffff163373ffffffffffffffffffffffffffffffffffffffff1614611779576040517f08c379a000000000000000000000000000000000000000000000000000000000815260040180806020018281038252602e815260200180612a3e602e913960400191505060405180910390fd5b600160009054906101000a900473ffffffffffffffffffffffffffffffffffffffff1673ffffffffffffffffffffffffffffffffffffffff16ff5b6000600a60009054906101000a900473ffffffffffffffffffffffffffffffffffffffff16905090565b600e5481565b60075481565b6117f26121e7565b73ffffffffffffffffffffffffffffffffffffffff163373ffffffffffffffffffffffffffffffffffffffff1614611875576040517f08c379a000000000000000000000000000000000000000000000000000000000815260040180806020018281038252602e815260200180612a3e602e913960400191505060405180910390fd5b600960009054906101000a900473ffffffffffffffffffffffffffffffffffffffff1673ffffffffffffffffffffffffffffffffffffffff1663d00412dc846040518263ffffffff1660e01b81526004018082815260200191505060206040518083038186803b1580156118e857600080fd5b505afa1580156118fc573d6000803e3d6000fd5b505050506040513d602081101561191257600080fd5b81019080805190602001909291905050508314611997576040517f08c379a00000000000000000000000000000000000000000000000000000000081526004018080602001828103825260198152602001807f4d696e7420766b4964206e6f7420726567697374657265642e0000000000000081525060200191505060405180910390fd5b600960009054906101000a900473ffffffffffffffffffffffffffffffffffffffff1673ffffffffffffffffffffffffffffffffffffffff1663d00412dc836040518263ffffffff1660e01b81526004018082815260200191505060206040518083038186803b158015611a0a57600080fd5b505afa158015611a1e573d6000803e3d6000fd5b505050506040513d6020811015611a3457600080fd5b81019080805190602001909291905050508214611ab9576040517f08c379a000000000000000000000000000000000000000000000000000000000815260040180806020018281038252601d8152602001807f5472616e7366657220766b4964206e6f7420726567697374657265642e00000081525060200191505060405180910390fd5b600960009054906101000a900473ffffffffffffffffffffffffffffffffffffffff1673ffffffffffffffffffffffffffffffffffffffff1663d00412dc826040518263ffffffff1660e01b81526004018082815260200191505060206040518083038186803b158015611b2c57600080fd5b505afa158015611b40573d6000803e3d6000fd5b505050506040513d6020811015611b5657600080fd5b81019080805190602001909291905050508114611bdb576040517f08c379a00000000000000000000000000000000000000000000000000000000081526004018080602001828103825260198152602001807f4275726e20766b4964206e6f7420726567697374657265642e0000000000000081525060200191505060405180910390fd5b82600c8190555081600d8190555080600e819055507f1f8f16ca5111548c9fdc797c50a49b5f07f4fa15595b6c53f497d029554197e5600c54600d54600e5460405180848152602001838152602001828152602001935050505060405180910390a1505050565b60026020528060005260406000206000915054906101000a900460281b81565b600c5481565b600c548114611cdf576040517f08c379a000000000000000000000000000000000000000000000000000000000815260040180806020018281038252600e8152602001807f496e636f727265637420766b496400000000000000000000000000000000000081525060200191505060405180910390fd5b6000600a60009054906101000a900473ffffffffffffffffffffffffffffffffffffffff1673ffffffffffffffffffffffffffffffffffffffff16634292dc3e87878787876040518663ffffffff1660e01b81526004018080602001806020018481526020018381038352888882818152602001925060200280828437600081840152601f19601f8201169050808301925050508381038252868682818152602001925060200280828437600081840152601f19601f820116905080830192505050975050505050505050602060405180830381600087803b158015611dc457600080fd5b505af1158015611dd8573d6000803e3d6000fd5b505050506040513d6020811015611dee57600080fd5b8101908080519060200190929190505050905080611e57576040517f08c379a000000000000000000000000000000000000000000000000000000000815260040180806020018281038252602f8152602001806129e6602f913960400191505060405180910390fd5b6000611e8985856001818110611e6957fe5b9050602002013586866000818110611e7d57fe5b90506020020135612934565b90506000611ebd86866003818110611e9d57fe5b9050602002013587876002818110611eb157fe5b905060200201356125a4565b905080600360008364ffffffffff191664ffffffffff1916815260200190815260200160002060006101000a8154817affffffffffffffffffffffffffffffffffffffffffffffffffffff021916908360281c0217905550600654600164010000000003016007819055508060046000600754815260200190815260200160002060006101000a8154817affffffffffffffffffffffffffffffffffffffffffffffffffffff021916908360281c02179055506000611f7d6007546125c3565b905080600560008364ffffffffff191664ffffffffff1916815260200190815260200160002060006101000a8154817affffffffffffffffffffffffffffffffffffffffffffffffffffff021916908360281c021790555080600860006101000a8154817affffffffffffffffffffffffffffffffffffffffffffffffffffff021916908360281c0217905550600b60009054906101000a900473ffffffffffffffffffffffffffffffffffffffff1673ffffffffffffffffffffffffffffffffffffffff166342842e0e3330866040518463ffffffff1660e01b8152600401808473ffffffffffffffffffffffffffffffffffffffff1673ffffffffffffffffffffffffffffffffffffffff1681526020018373ffffffffffffffffffffffffffffffffffffffff1673ffffffffffffffffffffffffffffffffffffffff1681526020018281526020019350505050600060405180830381600087803b1580156120e757600080fd5b505af11580156120fb573d6000803e3d6000fd5b505050507f2f00e3cdd69a77be7ed215ec7b2a36784dd158f921fca79ac29deffa353fe6ee3330856006600081548092919060010191905055604051808573ffffffffffffffffffffffffffffffffffffffff1673ffffffffffffffffffffffffffffffffffffffff1681526020018473ffffffffffffffffffffffffffffffffffffffff1673ffffffffffffffffffffffffffffffffffffffff16815260200183815260200182815260200194505050505060405180910390a1505050505050505050565b600960009054906101000a900473ffffffffffffffffffffffffffffffffffffffff1681565b60008060009054906101000a900473ffffffffffffffffffffffffffffffffffffffff16905090565b60065481565b6000600b60009054906101000a900473ffffffffffffffffffffffffffffffffffffffff16905090565b6000809054906101000a900473ffffffffffffffffffffffffffffffffffffffff1681565b60036020528060005260406000206000915054906101000a900460281b81565b61228d6121e7565b73ffffffffffffffffffffffffffffffffffffffff163373ffffffffffffffffffffffffffffffffffffffff1614612310576040517f08c379a000000000000000000000000000000000000000000000000000000000815260040180806020018281038252602e815260200180612a3e602e913960400191505060405180910390fd5b80600a60006101000a81548173ffffffffffffffffffffffffffffffffffffffff021916908373ffffffffffffffffffffffffffffffffffffffff1602179055507eaccbf0787bf565863b49aef6d6d8ff2f631f1da95c76e016aed7a21a11a7b781604051808273ffffffffffffffffffffffffffffffffffffffff1673ffffffffffffffffffffffffffffffffffffffff16815260200191505060405180910390a150565b60046020528060005260406000206000915054906101000a900460281b81565b600860009054906101000a900460281b81565b60056020528060005260406000206000915054906101000a900460281b81565b6124116121e7565b73ffffffffffffffffffffffffffffffffffffffff163373ffffffffffffffffffffffffffffffffffffffff1614612494576040517f08c379a000000000000000000000000000000000000000000000000000000000815260040180806020018281038252602e815260200180612a3e602e913960400191505060405180910390fd5b600073ffffffffffffffffffffffffffffffffffffffff168173ffffffffffffffffffffffffffffffffffffffff1614156124ce57600080fd5b7f8be0079c531659141344cd1fd0a4f28419497f9722a3daafe3b4186f6b6457e06124f76121e7565b82604051808373ffffffffffffffffffffffffffffffffffffffff1673ffffffffffffffffffffffffffffffffffffffff1681526020018273ffffffffffffffffffffffffffffffffffffffff1673ffffffffffffffffffffffffffffffffffffffff1681526020019250505060405180910390a16125758161294e565b50565b600d5481565b600b60009054906101000a900473ffffffffffffffffffffffffffffffffffffffff1681565b600060808260281b64ffffffffff1916901b8360281b17905092915050565b600080600080600160210390505b6000811115612909576000600286816125e657fe5b061415612776576001850392506002600186038161260057fe5b049150602860026004600086815260200190815260200160002060009054906101000a900460281b6004600089815260200190815260200160002060009054906101000a900460281b604051602001808364ffffffffff191664ffffffffff19168152601b018264ffffffffff191664ffffffffff19168152601b01925050506040516020818303038152906040526040518082805190602001908083835b602083106126c2578051825260208201915060208101905060208303925061269f565b6001836020036101000a038019825116818451168082178552505050505050905001915050602060405180830381855afa158015612704573d6000803e3d6000fd5b5050506040513d602081101561271957600080fd5b8101908080519060200190929190505050901b6004600084815260200190815260200160002060006101000a8154817affffffffffffffffffffffffffffffffffffffffffffffffffffff021916908360281c02179055506128f8565b6001850192506002858161278657fe5b049150602860026004600088815260200190815260200160002060009054906101000a900460281b6004600087815260200190815260200160002060009054906101000a900460281b604051602001808364ffffffffff191664ffffffffff19168152601b018264ffffffffff191664ffffffffff19168152601b01925050506040516020818303038152906040526040518082805190602001908083835b602083106128485780518252602082019150602081019050602083039250612825565b6001836020036101000a038019825116818451168082178552505050505050905001915050602060405180830381855afa15801561288a573d6000803e3d6000fd5b5050506040513d602081101561289f57600080fd5b8101908080519060200190929190505050901b6004600084815260200190815260200160002060006101000a8154817affffffffffffffffffffffffffffffffffffffffffffffffffffff021916908360281c02179055505b8194508080600190039150506125d1565b506004600080815260200190815260200160002060009054906101000a900460281b92505050919050565b60008260001b60808360001b901b1760001c905092915050565b806000806101000a81548173ffffffffffffffffffffffffffffffffffffffff021916908373ffffffffffffffffffffffffffffffffffffffff1602179055505056fe54686520746f6b656e2068617320616c7265616479206265656e206e756c6c6966696564216f6e455243373231526563656976656428616464726573732c616464726573732c75696e743235362c6279746573295468652070726f6f6620686173206e6f74206265656e2076657269666965642062792074686520636f6e747261637454686520746f6b656e2068617320616c7265616479206e6f74206265656e206e756c6c696669656421596f7520617265206e6f7420617574686f726973656420746f20696e766f6b6520746869732066756e6374696f6e54686520696e70757420726f6f7420686173206e65766572206265656e2074686520726f6f74206f6620746865204d65726b6c652054726565a165627a7a723058209e74ad622349a81987912fe948e2a1826b3f123e6a9ac3a1bf11b7d01acda9fc0029",
  "source": "/**\nContract to enable the management of hidden non fungible toke transactions.\n@Author Westlad, Chaitanya-Konda, iAmMichaelConnor\n*/\npragma solidity ^0.5.8;\n\nimport \"./Ownable.sol\";\nimport \"./Verifier_Registry.sol\"; //we import the implementation to have visibility of its 'getters'\nimport \"./Verifier_Interface.sol\";\nimport \"./ERC721Interface.sol\";\n\n\n\ncontract NFTokenShield is Ownable {\n\n  /*\n  @notice Explanation of the Merkle Tree, M, in this contract:\n  We store the merkle tree nodes in a flat array.\n\n\n\n                                      0  <-- this is our Merkle Root\n                               /             \\\n                        1                             2\n                    /       \\                     /       \\\n                3             4               5               6\n              /   \\         /   \\           /   \\           /    \\\n            7       8      9      10      11      12      13      14\n          /  \\    /  \\   /  \\    /  \\    /  \\    /  \\    /  \\    /  \\\n         15  16  17 18  19  20  21  22  23  24  25  26  27  28  29  30\n\ndepth row  width  st#     end#\n  1    0   2^0=1  w=0   2^1-1=0\n  2    1   2^1=2  w=1   2^2-1=2\n  3    2   2^2=4  w=3   2^3-1=6\n  4    3   2^3=8  w=7   2^4-1=14\n  5    4   2^4=16 w=15  2^5-1=30\n\n  d = depth = 5\n  r = row number\n  w = width = 2^(depth-1) = 2^3 = 16\n  #nodes = (2^depth)-1 = 2^5-2 = 30\n\n  */\n\n    event Mint(address from, address to, uint256 token_id, uint256 token_index);\n    event Transfer(bytes27 nullifier, bytes27 token, uint256 token_index);\n    event Burn(uint256 tokenId, address payTo, bytes27 nullifier);\n\n    event VerifierChanged(address newVerifierContract);\n    event VkIdsChanged(bytes32 mintVkId, bytes32 transferVkId, bytes32 burnVkId);\n\n    address payable private _owner;\n\n    uint constant merkleWidth = 4294967296; //2^32\n    uint constant merkleDepth = 33; //33\n\n    mapping(bytes27 => bytes27) public ns; //store nullifiers of spent commitments\n    mapping(bytes27 => bytes27) public zs; //array holding the commitments.  Basically the bottom row of the merkle tree\n    mapping(uint256 => bytes27) public M; //the entire Merkle Tree of nodes, with the latter 'half' of M being the leaves.\n    mapping(bytes27 => bytes27) public roots; //holds each root we've calculated so that we can pull the one relevant to the prover\n\n    uint256 public zCount; //remembers the number of tokens we hold\n    uint256 public leafIndex; //index for posting/getting leaves to/from M\n    bytes27 public latestRoot; //holds the index for the latest root so that the prover can provide it later and this contract can look up the relevant root\n\n    Verifier_Registry public verifierRegistry; //the Verifier Registry contract\n    Verifier_Interface public verifier; //the verification smart contract\n    ERC721Interface public nfToken; //the NFToken ERC-721 token contract\n\n    //following registration of the vkId's with the Verifier Registry, we hard code their vkId's in setVkIds\n    bytes32 public mintVkId;\n    bytes32 public transferVkId;\n    bytes32 public burnVkId;\n\n    constructor(address _verifierRegistry, address _verifier, address _nfToken) public {\n        _owner = msg.sender;\n        verifierRegistry = Verifier_Registry(_verifierRegistry);\n        verifier = Verifier_Interface(_verifier);\n        nfToken = ERC721Interface(_nfToken);\n    }\n\n    /**\n    self destruct\n    */\n    function close() external onlyOwner {\n        selfdestruct(_owner);\n    }\n\n    /**\n    function to change the address of the underlying Verifier contract\n    */\n    function changeVerifier(address _verifier) external onlyOwner {\n        verifier = Verifier_Interface(_verifier);\n        emit VerifierChanged(_verifier);\n    }\n\n    /**\n    returns the verifier-interface contract address that this shield contract is calling\n    */\n    function getVerifier() external view returns(address) {\n        return address(verifier);\n    }\n\n    /**\n    Sets the vkIds (as registered with the Verifier Registry) which correspond to 'mint', 'transfer' and 'burn' computations respectively\n    */\n    function setVkIds(bytes32 _mintVkId, bytes32 _transferVkId, bytes32 _burnVkId) external onlyOwner {\n        //ensure the vkId's have been registered:\n        require(_mintVkId == verifierRegistry.getVkEntryVkId(_mintVkId), \"Mint vkId not registered.\");\n        require(_transferVkId == verifierRegistry.getVkEntryVkId(_transferVkId), \"Transfer vkId not registered.\");\n        require(_burnVkId == verifierRegistry.getVkEntryVkId(_burnVkId), \"Burn vkId not registered.\");\n\n        //store the vkIds\n        mintVkId = _mintVkId;\n        transferVkId = _transferVkId;\n        burnVkId = _burnVkId;\n\n        emit VkIdsChanged(mintVkId, transferVkId, burnVkId);\n    }\n\n    /**\n    returns the ERC-721 contract address that this shield contract is calling\n    */\n    function getNFToken() public view returns(address){\n      return address(nfToken);\n    }\n\n    /**\n    * SafeTransferFrom implementation of ERC-721 contract checks the return value of onERC721Received of tokenShield contract.\n    * If the correct value is not returned, then the transferFrom() function is rolled back as it has been  determined that the _to does not\n    * implement the expected interface.\n    * The correct value is Returns `bytes4(keccak256(\"onERC721Received(address,uint256,bytes)\"))`\n    */\n    function onERC721Received(address, address, uint256, bytes memory) public pure returns (bytes4) {\n    return bytes4(keccak256(\"onERC721Received(address,address,uint256,bytes)\"));\n    }\n\n    /**\n    The mint function creates ('mints') a new commitment and stores it in M\n    */\n    function mint(uint256[] calldata _proof, uint256[] calldata _inputs, bytes32 _vkId) external {\n\n        require(_vkId == mintVkId, \"Incorrect vkId\");\n\n        // verify the proof\n        bool result = verifier.verify(_proof, _inputs, _vkId);\n        require(result, \"The proof has not been verified by the contract\");\n\n        //convert the first two inputs back into a token ID\n        uint256 tokenId = combineUint256(_inputs[1], _inputs[0]);\n\n        bytes27 z = packedToBytes27(_inputs[3], _inputs[2]); //each of these is two words\n\n        zs[z] = z; //add the commitment\n\n        leafIndex = merkleWidth - 1 + zCount;//specify the index of z within M\n        M[leafIndex] = z;//add z to M\n\n        bytes27 root = updatePathToRoot(leafIndex);//recalculate the root of M as it's now different\n        roots[root] = root; //and save the new root to the list of roots\n        latestRoot = root;\n\n        //Finally, transfer token from the sender to this contract address\n        nfToken.safeTransferFrom(msg.sender, address(this), tokenId);\n\n        emit Mint(msg.sender, address(this), tokenId, zCount++);\n    }\n\n    /**\n    The transfer function transfers a commitment to a new owner\n    */\n    function transfer(uint256[] calldata _proof, uint256[] calldata _inputs, bytes32 _vkId) external {\n\n        require(_vkId == transferVkId, \"Incorrect vkId\");\n\n        // verify the proof\n        bool result = verifier.verify(_proof, _inputs, _vkId);\n        require(result, \"The proof has not been verified by the contract\");\n\n        bytes27 n = packedToBytes27(_inputs[1],_inputs[0]);\n        bytes27 inputRoot = packedToBytes27(_inputs[3],_inputs[2]);\n        bytes27 z = packedToBytes27(_inputs[5],_inputs[4]);\n\n        require(ns[n] == 0, \"The token has already not been nullified!\");\n        require(roots[inputRoot] == inputRoot, \"The input root has never been the root of the Merkle Tree\");\n\n        ns[n] = n; //remember we spent it\n        zs[z] = z; //add Bob's token to the list of tokens\n\n        leafIndex = merkleWidth - 1 + zCount; //specify the index of z within M\n        M[leafIndex] = z; //add z to M\n\n        bytes27 root = updatePathToRoot(leafIndex);//recalculate the root of M as it's now different\n        roots[root] = root; //and save the new root to the list of roots\n        latestRoot = root;\n\n        emit Transfer(n, z, zCount++);\n    }\n\n    /**\n    The burn function burns a commitment and transfers the asset held within the commiment to the address payTo\n    */\n    function burn(uint256[] memory _proof, uint256[] memory _inputs, bytes32 _vkId) public {\n\n      require(_vkId == burnVkId, \"Incorrect vkId\");\n\n      // verify the proof\n      bool result = verifier.verify(_proof, _inputs, _vkId);\n      require(result, \"The proof has not been verified by the contract\");\n\n      uint256 payToUint = combineUint256(_inputs[1], _inputs[0]); //recover the payTo address\n      address payTo = address(payToUint); // explicitly convert to address (because we're sure no data loss will result from this)\n      uint256 tokenId = combineUint256(_inputs[3], _inputs[2]); //recover the tokenId\n      bytes27 na = packedToBytes27(_inputs[5], _inputs[4]); //recover the nullifier\n      bytes27 inputRoot = packedToBytes27(_inputs[7], _inputs[6]); //recover the root\n\n      require(roots[inputRoot] == inputRoot, \"The input root has never been the root of the Merkle Tree\");\n      require(ns[na]==0, \"The token has already been nullified!\");\n\n      ns[na] = na; //add the nullifier to the list of nullifiers\n\n      //Finally, transfer NFToken from this contract address to the nominated address\n      nfToken.safeTransferFrom(address(this), payTo, tokenId);\n\n      emit Burn(tokenId, payTo, na);\n    }\n\n    /**\n    Updates each node of the Merkle Tree on the path from leaf to root.\n    p - is the leafIndex of the new token within M.\n    */\n    function updatePathToRoot(uint p) private returns (bytes27) {\n\n    /*\n    If Z were the token, then the p's mark the 'path', and the s's mark the 'sibling path'\n\n                     p\n            p                  s\n       s         p        EF        GH\n    A    B    Z    s    E    F    G    H\n    */\n\n        uint s; //s is the 'sister' path of p.\n        uint t; //temp index for the next p (i.e. the path node of the row above)\n        for (uint r = merkleDepth-1; r > 0; r--) {\n            if (p%2 == 0) { //p even index in M\n                s = p-1;\n                t = (p-1)/2;\n                M[t] = bytes27(sha256(abi.encodePacked(M[s],M[p]))<<40);\n            } else { //p odd index in M\n                s = p+1;\n                t = p/2;\n                M[t] = bytes27(sha256(abi.encodePacked(M[p],M[s]))<<40);\n            }\n            p = t; //move to the path node on the next highest row of the tree\n        }\n        return M[0]; //the root of M\n    }\n\n    function packedToBytes27(uint256 low, uint256 high) private pure returns (bytes27){\n      return bytes27(uint216(low)) | (bytes27(uint216(high))<<128);\n    }\n\n    function combineUint256(uint256 low, uint256 high) private pure returns (uint256){\n      return uint256((bytes32(high)<<128) | bytes32(low));\n    }\n\n}\n",
  "sourcePath": "/Users/hz/workspace/nightfall/contracts/NFTokenShield.sol",
  "compiler": {
    "name": "solc",
    "version": "0.5.8+commit.23d335f2.Emscripten.clang"
  },
  "schemaVersion": "3.0.11",
  "updatedAt": "2019-09-16T13:04:36.755Z",
  "devdoc": {
    "methods": {
      "owner()": {
        "details": "Tells the address of the owner",
        "return": "the address of the owner"
      },
      "transferOwnership(address)": {
        "details": "Allows the current owner to transfer control of the contract to a newOwner.",
        "params": {
          "newOwner": "The address to transfer ownership to."
        }
      }
    }
  },
  "userdoc": {
    "methods": {
      "burn(uint256[],uint256[],bytes32)": {
        "notice": "The burn function burns a commitment and transfers the asset held within the commiment to the address payTo"
      },
      "changeVerifier(address)": {
        "notice": "function to change the address of the underlying Verifier contract"
      },
      "close()": {
        "notice": "self destruct"
      },
      "getNFToken()": {
        "notice": "returns the ERC-721 contract address that this shield contract is calling"
      },
      "getVerifier()": {
        "notice": "returns the verifier-interface contract address that this shield contract is calling"
      },
      "mint(uint256[],uint256[],bytes32)": {
        "notice": "The mint function creates ('mints') a new commitment and stores it in M"
      },
      "onERC721Received(address,address,uint256,bytes)": {
        "notice": "SafeTransferFrom implementation of ERC-721 contract checks the return value of onERC721Received of tokenShield contract. If the correct value is not returned, then the transferFrom() function is rolled back as it has been  determined that the _to does not implement the expected interface. The correct value is Returns `bytes4(keccak256(\"onERC721Received(address,uint256,bytes)\"))`"
      },
      "setVkIds(bytes32,bytes32,bytes32)": {
        "notice": "Sets the vkIds (as registered with the Verifier Registry) which correspond to 'mint', 'transfer' and 'burn' computations respectively"
      },
      "transfer(uint256[],uint256[],bytes32)": {
        "notice": "The transfer function transfers a commitment to a new owner"
      }
    }
  }
}