{
  "contractName": "PKD",
  "abi": [
    {
      "constant": true,
      "inputs": [
        {
          "name": "name",
          "type": "bytes32"
        }
      ],
      "name": "getWhisperPublicKeyFromName",
      "outputs": [
        {
          "name": "",
          "type": "string"
        }
      ],
      "payable": false,
      "stateMutability": "view",
      "type": "function"
    },
    {
      "constant": true,
      "inputs": [
        {
          "name": "addr",
          "type": "address"
        }
      ],
      "name": "getWhisperPublicKeyFromAddress",
      "outputs": [
        {
          "name": "",
          "type": "string"
        }
      ],
      "payable": false,
      "stateMutability": "view",
      "type": "function"
    },
    {
      "constant": true,
      "inputs": [
        {
          "name": "addr",
          "type": "address"
        }
      ],
      "name": "getZkpPublicKeyFromAddress",
      "outputs": [
        {
          "name": "",
          "type": "bytes27"
        }
      ],
      "payable": false,
      "stateMutability": "view",
      "type": "function"
    },
    {
      "constant": true,
      "inputs": [
        {
          "name": "name",
          "type": "bytes32"
        }
      ],
      "name": "getZkpPublicKeyFromName",
      "outputs": [
        {
          "name": "",
          "type": "bytes27"
        }
      ],
      "payable": false,
      "stateMutability": "view",
      "type": "function"
    },
    {
      "constant": true,
      "inputs": [
        {
          "name": "name",
          "type": "bytes32"
        }
      ],
      "name": "getPublicKeysFromName",
      "outputs": [
        {
          "name": "whisperPublicKey",
          "type": "string"
        },
        {
          "name": "zkpPublicKey",
          "type": "bytes27"
        }
      ],
      "payable": false,
      "stateMutability": "view",
      "type": "function"
    },
    {
      "constant": true,
      "inputs": [
        {
          "name": "addr",
          "type": "address"
        }
      ],
      "name": "getPublicKeysFromAddress",
      "outputs": [
        {
          "name": "whisperPublicKey",
          "type": "string"
        },
        {
          "name": "zkpPublicKey",
          "type": "bytes27"
        }
      ],
      "payable": false,
      "stateMutability": "view",
      "type": "function"
    },
    {
      "constant": false,
      "inputs": [
        {
          "name": "whisperPublicKey",
          "type": "string"
        },
        {
          "name": "zkpPublicKey",
          "type": "bytes27"
        }
      ],
      "name": "setPublicKeys",
      "outputs": [],
      "payable": false,
      "stateMutability": "nonpayable",
      "type": "function"
    },
    {
      "constant": false,
      "inputs": [
        {
          "name": "pk",
          "type": "string"
        }
      ],
      "name": "setWhisperPublicKey",
      "outputs": [],
      "payable": false,
      "stateMutability": "nonpayable",
      "type": "function"
    },
    {
      "constant": false,
      "inputs": [
        {
          "name": "pk",
          "type": "bytes27"
        }
      ],
      "name": "setZkpPublicKey",
      "outputs": [],
      "payable": false,
      "stateMutability": "nonpayable",
      "type": "function"
    },
    {
      "constant": false,
      "inputs": [
        {
          "name": "name",
          "type": "bytes32"
        }
      ],
      "name": "setName",
      "outputs": [],
      "payable": false,
      "stateMutability": "nonpayable",
      "type": "function"
    },
    {
      "constant": true,
      "inputs": [
        {
          "name": "addr",
          "type": "address"
        }
      ],
      "name": "getNameFromAddress",
      "outputs": [
        {
          "name": "",
          "type": "bytes32"
        }
      ],
      "payable": false,
      "stateMutability": "view",
      "type": "function"
    },
    {
      "constant": true,
      "inputs": [
        {
          "name": "name",
          "type": "bytes32"
        }
      ],
      "name": "getAddressFromName",
      "outputs": [
        {
          "name": "",
          "type": "address"
        }
      ],
      "payable": false,
      "stateMutability": "view",
      "type": "function"
    },
    {
      "constant": true,
      "inputs": [],
      "name": "getNames",
      "outputs": [
        {
          "name": "",
          "type": "bytes32[]"
        }
      ],
      "payable": false,
      "stateMutability": "view",
      "type": "function"
    },
    {
      "constant": true,
      "inputs": [
        {
          "name": "name",
          "type": "bytes32"
        }
      ],
      "name": "isNameInUse",
      "outputs": [
        {
          "name": "",
          "type": "bool"
        }
      ],
      "payable": false,
      "stateMutability": "view",
      "type": "function"
    }
  ],
  "bytecode": "0x608060405234801561001057600080fd5b506112e7806100206000396000f3fe608060405234801561001057600080fd5b50600436106100ea5760003560e01c8063a407b2ab1161008c578063cd838f0f11610066578063cd838f0f146105bf578063cf7d1ff91461061e578063d86fc316146106dc578063dc76ff9e14610722576100ea565b8063a407b2ab14610474578063a75ce411146104aa578063aac746ee14610567576100ea565b8063583f1666116100c8578063583f1666146102565780635ac801fe14610323578063816074a914610351578063988c64481461040c576100ea565b806305efde6e146100ef5780632e61751214610141578063501558f6146101af575b600080fd5b61011b6004803603602081101561010557600080fd5b81019080803590602001909291905050506107f6565b604051808264ffffffffff191664ffffffffff1916815260200191505060405180910390f35b61016d6004803603602081101561015757600080fd5b810190808035906020019092919050505061087e565b604051808273ffffffffffffffffffffffffffffffffffffffff1673ffffffffffffffffffffffffffffffffffffffff16815260200191505060405180910390f35b6101db600480360360208110156101c557600080fd5b81019080803590602001909291905050506108ba565b6040518080602001828103825283818151815260200191508051906020019080838360005b8381101561021b578082015181840152602081019050610200565b50505050905090810190601f1680156102485780820380516001836020036101000a031916815260200191505b509250505060405180910390f35b6103216004803603604081101561026c57600080fd5b810190808035906020019064010000000081111561028957600080fd5b82018360208201111561029b57600080fd5b803590602001918460018302840111640100000000831117156102bd57600080fd5b91908080601f016020809104026020016040519081016040528093929190818152602001838380828437600081840152601f19601f820116905080830192505050505050509192919290803564ffffffffff191690602001909291905050506109cd565b005b61034f6004803603602081101561033957600080fd5b8101908080359060200190929190505050610a97565b005b61040a6004803603602081101561036757600080fd5b810190808035906020019064010000000081111561038457600080fd5b82018360208201111561039657600080fd5b803590602001918460018302840111640100000000831117156103b857600080fd5b91908080601f016020809104026020016040519081016040528093929190818152602001838380828437600081840152601f19601f820116905080830192505050505050509192919290505050610c2f565b005b61044e6004803603602081101561042257600080fd5b81019080803573ffffffffffffffffffffffffffffffffffffffff169060200190929190505050610c86565b604051808264ffffffffff191664ffffffffff1916815260200191505060405180910390f35b6104a86004803603602081101561048a57600080fd5b81019080803564ffffffffff19169060200190929190505050610cdc565b005b6104ec600480360360208110156104c057600080fd5b81019080803573ffffffffffffffffffffffffffffffffffffffff169060200190929190505050610d51565b6040518080602001828103825283818151815260200191508051906020019080838360005b8381101561052c578082015181840152602081019050610511565b50505050905090810190601f1680156105595780820380516001836020036101000a031916815260200191505b509250505060405180910390f35b6105a96004803603602081101561057d57600080fd5b81019080803573ffffffffffffffffffffffffffffffffffffffff169060200190929190505050610e32565b6040518082815260200191505060405180910390f35b6105c7610e7b565b6040518080602001828103825283818151815260200191508051906020019060200280838360005b8381101561060a5780820151818401526020810190506105ef565b505050509050019250505060405180910390f35b61064a6004803603602081101561063457600080fd5b8101908080359060200190929190505050610ed3565b60405180806020018364ffffffffff191664ffffffffff19168152602001828103825284818151815260200191508051906020019080838360005b838110156106a0578082015181840152602081019050610685565b50505050905090810190601f1680156106cd5780820380516001836020036101000a031916815260200191505b50935050505060405180910390f35b610708600480360360208110156106f257600080fd5b8101908080359060200190929190505050611069565b604051808215151515815260200191505060405180910390f35b6107646004803603602081101561073857600080fd5b81019080803573ffffffffffffffffffffffffffffffffffffffff1690602001909291905050506110e4565b60405180806020018364ffffffffff191664ffffffffff19168152602001828103825284818151815260200191508051906020019080838360005b838110156107ba57808201518184015260208101905061079f565b50505050905090810190601f1680156107e75780820380516001836020036101000a031916815260200191505b50935050505060405180910390f35b60006003600080600085815260200190815260200160002060009054906101000a900473ffffffffffffffffffffffffffffffffffffffff1673ffffffffffffffffffffffffffffffffffffffff1673ffffffffffffffffffffffffffffffffffffffff16815260200190815260200160002060009054906101000a900460281b9050919050565b600080600083815260200190815260200160002060009054906101000a900473ffffffffffffffffffffffffffffffffffffffff169050919050565b60606002600080600085815260200190815260200160002060009054906101000a900473ffffffffffffffffffffffffffffffffffffffff1673ffffffffffffffffffffffffffffffffffffffff1673ffffffffffffffffffffffffffffffffffffffff1681526020019081526020016000208054600181600116156101000203166002900480601f0160208091040260200160405190810160405280929190818152602001828054600181600116156101000203166002900480156109c15780601f10610996576101008083540402835291602001916109c1565b820191906000526020600020905b8154815290600101906020018083116109a457829003601f168201915b50505050509050919050565b81600260003373ffffffffffffffffffffffffffffffffffffffff1673ffffffffffffffffffffffffffffffffffffffff1681526020019081526020016000209080519060200190610a20929190611216565b5080600360003373ffffffffffffffffffffffffffffffffffffffff1673ffffffffffffffffffffffffffffffffffffffff16815260200190815260200160002060006101000a8154817affffffffffffffffffffffffffffffffffffffffffffffffffffff021916908360281c02179055505050565b600073ffffffffffffffffffffffffffffffffffffffff1660008083815260200190815260200160002060009054906101000a900473ffffffffffffffffffffffffffffffffffffffff1673ffffffffffffffffffffffffffffffffffffffff1614610b6b576040517f08c379a00000000000000000000000000000000000000000000000000000000081526004018080602001828103825260138152602001807f4e616d6520616c726561647920696e207573650000000000000000000000000081525060200191505060405180910390fd5b3360008083815260200190815260200160002060006101000a81548173ffffffffffffffffffffffffffffffffffffffff021916908373ffffffffffffffffffffffffffffffffffffffff16021790555080600160003373ffffffffffffffffffffffffffffffffffffffff1673ffffffffffffffffffffffffffffffffffffffff16815260200190815260200160002081905550600481908060018154018082558091505090600182039060005260206000200160009091929091909150555050565b80600260003373ffffffffffffffffffffffffffffffffffffffff1673ffffffffffffffffffffffffffffffffffffffff1681526020019081526020016000209080519060200190610c82929190611216565b5050565b6000600360008373ffffffffffffffffffffffffffffffffffffffff1673ffffffffffffffffffffffffffffffffffffffff16815260200190815260200160002060009054906101000a900460281b9050919050565b80600360003373ffffffffffffffffffffffffffffffffffffffff1673ffffffffffffffffffffffffffffffffffffffff16815260200190815260200160002060006101000a8154817affffffffffffffffffffffffffffffffffffffffffffffffffffff021916908360281c021790555050565b6060600260008373ffffffffffffffffffffffffffffffffffffffff1673ffffffffffffffffffffffffffffffffffffffff1681526020019081526020016000208054600181600116156101000203166002900480601f016020809104026020016040519081016040528092919081815260200182805460018160011615610100020316600290048015610e265780601f10610dfb57610100808354040283529160200191610e26565b820191906000526020600020905b815481529060010190602001808311610e0957829003601f168201915b50505050509050919050565b6000600160008373ffffffffffffffffffffffffffffffffffffffff1673ffffffffffffffffffffffffffffffffffffffff168152602001908152602001600020549050919050565b60606004805480602002602001604051908101604052809291908181526020018280548015610ec957602002820191906000526020600020905b815481526020019060010190808311610eb5575b5050505050905090565b606060006002600080600086815260200190815260200160002060009054906101000a900473ffffffffffffffffffffffffffffffffffffffff1673ffffffffffffffffffffffffffffffffffffffff1673ffffffffffffffffffffffffffffffffffffffff1681526020019081526020016000208054600181600116156101000203166002900480601f016020809104026020016040519081016040528092919081815260200182805460018160011615610100020316600290048015610fdc5780601f10610fb157610100808354040283529160200191610fdc565b820191906000526020600020905b815481529060010190602001808311610fbf57829003601f168201915b505050505091506003600080600086815260200190815260200160002060009054906101000a900473ffffffffffffffffffffffffffffffffffffffff1673ffffffffffffffffffffffffffffffffffffffff1673ffffffffffffffffffffffffffffffffffffffff16815260200190815260200160002060009054906101000a900460281b9050915091565b60008073ffffffffffffffffffffffffffffffffffffffff1660008084815260200190815260200160002060009054906101000a900473ffffffffffffffffffffffffffffffffffffffff1673ffffffffffffffffffffffffffffffffffffffff1614156110da57600090506110df565b600190505b919050565b60606000600260008473ffffffffffffffffffffffffffffffffffffffff1673ffffffffffffffffffffffffffffffffffffffff1681526020019081526020016000208054600181600116156101000203166002900480601f0160208091040260200160405190810160405280929190818152602001828054600181600116156101000203166002900480156111bb5780601f10611190576101008083540402835291602001916111bb565b820191906000526020600020905b81548152906001019060200180831161119e57829003601f168201915b50505050509150600360008473ffffffffffffffffffffffffffffffffffffffff1673ffffffffffffffffffffffffffffffffffffffff16815260200190815260200160002060009054906101000a900460281b9050915091565b828054600181600116156101000203166002900490600052602060002090601f016020900481019282601f1061125757805160ff1916838001178555611285565b82800160010185558215611285579182015b82811115611284578251825591602001919060010190611269565b5b5090506112929190611296565b5090565b6112b891905b808211156112b457600081600090555060010161129c565b5090565b9056fea165627a7a72305820437ea97eceb0a113c77901aec4af370ec48e21befe0de8835c84f94156dfca840029",
  "source": "pragma solidity >=0.4.21 <0.6.0;\n/**\nThis contract acts as a Public Key Directory for looking up ZKP public keys if you know\nthe Ethereum address.  It also works as a simple Name Service\n@author Westlad\n*/\ncontract PKD{\n\n  mapping ( bytes32 => address) private byName;\n  mapping ( address => bytes32) private byAddress;\n  mapping ( address => string) private WhisperPublicKeyByAddress;\n  mapping ( address => bytes27) private ZkpPublicKeyByAddress;\n  bytes32[] private names;\n\n  function getWhisperPublicKeyFromName(bytes32 name) public view returns(string memory){\n    return WhisperPublicKeyByAddress[byName[name]];\n  }\n\n  function getWhisperPublicKeyFromAddress(address addr) public view returns(string memory){\n    return WhisperPublicKeyByAddress[addr];\n  }\n\n  function getZkpPublicKeyFromAddress(address addr) public view returns(bytes27){\n    return ZkpPublicKeyByAddress[addr];\n  }\n\n  function getZkpPublicKeyFromName(bytes32 name) public view returns(bytes27){\n    return ZkpPublicKeyByAddress[byName[name]];\n  }\n\n  function getPublicKeysFromName(bytes32 name) public view returns(\n    string  memory whisperPublicKey,\n    bytes27 zkpPublicKey\n    ){\n      whisperPublicKey = WhisperPublicKeyByAddress[byName[name]];\n      zkpPublicKey = ZkpPublicKeyByAddress[byName[name]];\n    }\n\n  function getPublicKeysFromAddress(address addr) public view returns(\n    string  memory whisperPublicKey,\n    bytes27 zkpPublicKey\n    ){\n      whisperPublicKey = WhisperPublicKeyByAddress[addr];\n      zkpPublicKey = ZkpPublicKeyByAddress[addr];\n    }\n\n  function setPublicKeys(\n    string  memory whisperPublicKey,\n    bytes27 zkpPublicKey\n    ) public{\n    WhisperPublicKeyByAddress[msg.sender] = whisperPublicKey;\n    ZkpPublicKeyByAddress[msg.sender] = zkpPublicKey;\n  }\n\n  function setWhisperPublicKey(string  memory pk) public{\n    WhisperPublicKeyByAddress[msg.sender] = pk;\n  }\n\n  function setZkpPublicKey(bytes27 pk) public{\n    ZkpPublicKeyByAddress[msg.sender] = pk;\n  }\n\n  function setName(bytes32 name) public {\n    require(byName[name] == address(0), \"Name already in use\"); //you can only use a name once\n    byName[name] = msg.sender;\n    byAddress[msg.sender] = name;\n    names.push(name);\n  }\n\n  function getNameFromAddress(address addr) public view returns(bytes32){\n    return byAddress[addr];\n  }\n\n  function getAddressFromName(bytes32 name) public view returns(address){\n    return byName[name];\n  }\n\n  function getNames() public view returns(bytes32[] memory){\n    return names;\n  }\n\n  function isNameInUse(bytes32 name) public view returns(bool){\n    if (byName[name] == address(0)) return false;\n    return true;\n  }\n\n}\n",
  "sourcePath": "/Users/hz/workspace/nightfall/contracts/PKD.sol",
  "compiler": {
    "name": "solc",
    "version": "0.5.8+commit.23d335f2.Emscripten.clang"
  },
  "schemaVersion": "3.0.11",
  "updatedAt": "2019-09-16T13:04:36.765Z",
  "devdoc": {
    "author": "Westlad",
    "methods": {}
  },
  "userdoc": {
    "methods": {},
    "notice": "This contract acts as a Public Key Directory for looking up ZKP public keys if you know the Ethereum address.  It also works as a simple Name Service"
  }
}