{
  "contractName": "SupportsInterface",
  "abi": [
    {
      "inputs": [],
      "payable": false,
      "stateMutability": "nonpayable",
      "type": "constructor"
    },
    {
      "constant": true,
      "inputs": [
        {
          "name": "_interfaceID",
          "type": "bytes4"
        }
      ],
      "name": "supportsInterface",
      "outputs": [
        {
          "name": "",
          "type": "bool"
        }
      ],
      "payable": false,
      "stateMutability": "view",
      "type": "function"
    }
  ],
  "bytecode": "0x608060405234801561001057600080fd5b5060016000806301ffc9a760e01b7bffffffffffffffffffffffffffffffffffffffffffffffffffffffff1916815260200190815260200160002060006101000a81548160ff021916908315150217905550610122806100716000396000f3fe6080604052348015600f57600080fd5b506004361060285760003560e01c806301ffc9a714602d575b600080fd5b607560048036036020811015604157600080fd5b8101908080357bffffffffffffffffffffffffffffffffffffffffffffffffffffffff19169060200190929190505050608f565b604051808215151515815260200191505060405180910390f35b6000806000837bffffffffffffffffffffffffffffffffffffffffffffffffffffffff19167bffffffffffffffffffffffffffffffffffffffffffffffffffffffff1916815260200190815260200160002060009054906101000a900460ff16905091905056fea165627a7a72305820f89c86e91cafbf6eefcb8841868444a74e8037bb834c22ab14d72d2235c1e09a0029",
  "source": "pragma solidity 0.5.8;\n\nimport \"./ERC165.sol\";\n\n/**\n * @dev Implementation of standard for detect smart contract interfaces.\n */\ncontract SupportsInterface is\n  ERC165\n{\n\n  /**\n   * @dev Mapping of supported intefraces.\n   * @notice You must not set element 0xffffffff to true.\n   */\n  mapping(bytes4 => bool) internal supportedInterfaces;\n\n  /**\n   * @dev Contract constructor.\n   */\n  constructor()\n    public\n  {\n    supportedInterfaces[0x01ffc9a7] = true; // ERC165\n  }\n\n  /**\n   * @dev Function to check which interfaces are suported by this contract.\n   * @param _interfaceID Id of the interface.\n   * @return True if _interfaceID is supported, false otherwise.\n   */\n  function supportsInterface(\n    bytes4 _interfaceID\n  )\n    external\n    view\n    returns (bool)\n  {\n    return supportedInterfaces[_interfaceID];\n  }\n\n}\n",
  "sourcePath": "/Users/hz/workspace/nightfall/contracts/SupportsInterface.sol",
  "compiler": {
    "name": "solc",
    "version": "0.5.8+commit.23d335f2.Emscripten.clang"
  },
  "schemaVersion": "3.0.11",
  "updatedAt": "2019-09-16T13:04:36.822Z",
  "devdoc": {
    "details": "Implementation of standard for detect smart contract interfaces.",
    "methods": {
      "constructor": {
        "details": "Contract constructor."
      },
      "supportsInterface(bytes4)": {
        "details": "Function to check which interfaces are suported by this contract.",
        "params": {
          "_interfaceID": "Id of the interface."
        },
        "return": "True if _interfaceID is supported, false otherwise."
      }
    }
  },
  "userdoc": {
    "methods": {}
  }
}